{
  "abi": [
    {
      "inputs": [
        {
          "internalType": "uint256",
          "name": "opIndex",
          "type": "uint256"
        },
        {
          "internalType": "address",
          "name": "paymaster",
          "type": "address"
        },
        {
          "internalType": "string",
          "name": "reason",
          "type": "string"
        }
      ],
      "name": "FailedOp",
      "type": "error"
    },
    {
      "inputs": [
        {
          "internalType": "address",
          "name": "sender",
          "type": "address"
        }
      ],
      "name": "SenderAddressResult",
      "type": "error"
    },
    {
      "inputs": [
        {
          "internalType": "address",
          "name": "aggregator",
          "type": "address"
        }
      ],
      "name": "SignatureValidationFailed",
      "type": "error"
    },
    {
      "inputs": [
        {
          "internalType": "uint256",
          "name": "preOpGas",
          "type": "uint256"
        },
        {
          "internalType": "uint256",
          "name": "prefund",
          "type": "uint256"
        },
        {
          "internalType": "uint256",
          "name": "deadline",
          "type": "uint256"
        },
        {
          "components": [
            {
              "internalType": "uint256",
              "name": "paymasterStake",
              "type": "uint256"
            },
            {
              "internalType": "uint256",
              "name": "paymasterUnstakeDelay",
              "type": "uint256"
            }
          ],
          "internalType": "struct IEntryPoint.PaymasterInfo",
          "name": "paymasterInfo",
          "type": "tuple"
        }
      ],
      "name": "SimulationResult",
      "type": "error"
    },
    {
      "inputs": [
        {
          "internalType": "uint256",
          "name": "preOpGas",
          "type": "uint256"
        },
        {
          "internalType": "uint256",
          "name": "prefund",
          "type": "uint256"
        },
        {
          "internalType": "uint256",
          "name": "deadline",
          "type": "uint256"
        },
        {
          "components": [
            {
              "internalType": "uint256",
              "name": "paymasterStake",
              "type": "uint256"
            },
            {
              "internalType": "uint256",
              "name": "paymasterUnstakeDelay",
              "type": "uint256"
            }
          ],
          "internalType": "struct IEntryPoint.PaymasterInfo",
          "name": "paymasterInfo",
          "type": "tuple"
        },
        {
          "components": [
            {
              "internalType": "address",
              "name": "actualAggregator",
              "type": "address"
            },
            {
              "internalType": "uint256",
              "name": "aggregatorStake",
              "type": "uint256"
            },
            {
              "internalType": "uint256",
              "name": "aggregatorUnstakeDelay",
              "type": "uint256"
            }
          ],
          "internalType": "struct IEntryPoint.AggregationInfo",
          "name": "aggregationInfo",
          "type": "tuple"
        }
      ],
      "name": "SimulationResultWithAggregation",
      "type": "error"
    },
    {
      "anonymous": false,
      "inputs": [
        {
          "indexed": true,
          "internalType": "address",
          "name": "account",
          "type": "address"
        },
        {
          "indexed": false,
          "internalType": "uint256",
          "name": "totalDeposit",
          "type": "uint256"
        }
      ],
      "name": "Deposited",
      "type": "event"
    },
    {
      "anonymous": false,
      "inputs": [
        {
          "indexed": true,
          "internalType": "address",
          "name": "account",
          "type": "address"
        },
        {
          "indexed": false,
          "internalType": "uint256",
          "name": "totalStaked",
          "type": "uint256"
        },
        {
          "indexed": false,
          "internalType": "uint256",
          "name": "withdrawTime",
          "type": "uint256"
        }
      ],
      "name": "StakeLocked",
      "type": "event"
    },
    {
      "anonymous": false,
      "inputs": [
        {
          "indexed": true,
          "internalType": "address",
          "name": "account",
          "type": "address"
        },
        {
          "indexed": false,
          "internalType": "uint256",
          "name": "withdrawTime",
          "type": "uint256"
        }
      ],
      "name": "StakeUnlocked",
      "type": "event"
    },
    {
      "anonymous": false,
      "inputs": [
        {
          "indexed": true,
          "internalType": "address",
          "name": "account",
          "type": "address"
        },
        {
          "indexed": false,
          "internalType": "address",
          "name": "withdrawAddress",
          "type": "address"
        },
        {
          "indexed": false,
          "internalType": "uint256",
          "name": "amount",
          "type": "uint256"
        }
      ],
      "name": "StakeWithdrawn",
      "type": "event"
    },
    {
      "anonymous": false,
      "inputs": [
        {
          "indexed": true,
          "internalType": "bytes32",
          "name": "userOpHash",
          "type": "bytes32"
        },
        {
          "indexed": true,
          "internalType": "address",
          "name": "sender",
          "type": "address"
        },
        {
          "indexed": true,
          "internalType": "address",
          "name": "paymaster",
          "type": "address"
        },
        {
          "indexed": false,
          "internalType": "uint256",
          "name": "nonce",
          "type": "uint256"
        },
        {
          "indexed": false,
          "internalType": "uint256",
          "name": "actualGasCost",
          "type": "uint256"
        },
        {
          "indexed": false,
          "internalType": "uint256",
          "name": "actualGasPrice",
          "type": "uint256"
        },
        {
          "indexed": false,
          "internalType": "bool",
          "name": "success",
          "type": "bool"
        }
      ],
      "name": "UserOperationEvent",
      "type": "event"
    },
    {
      "anonymous": false,
      "inputs": [
        {
          "indexed": true,
          "internalType": "bytes32",
          "name": "userOpHash",
          "type": "bytes32"
        },
        {
          "indexed": true,
          "internalType": "address",
          "name": "sender",
          "type": "address"
        },
        {
          "indexed": false,
          "internalType": "uint256",
          "name": "nonce",
          "type": "uint256"
        },
        {
          "indexed": false,
          "internalType": "bytes",
          "name": "revertReason",
          "type": "bytes"
        }
      ],
      "name": "UserOperationRevertReason",
      "type": "event"
    },
    {
      "anonymous": false,
      "inputs": [
        {
          "indexed": true,
          "internalType": "address",
          "name": "account",
          "type": "address"
        },
        {
          "indexed": false,
          "internalType": "address",
          "name": "withdrawAddress",
          "type": "address"
        },
        {
          "indexed": false,
          "internalType": "uint256",
          "name": "amount",
          "type": "uint256"
        }
      ],
      "name": "Withdrawn",
      "type": "event"
    },
    {
      "inputs": [
        {
          "internalType": "uint32",
          "name": "_unstakeDelaySec",
          "type": "uint32"
        }
      ],
      "name": "addStake",
      "outputs": [],
      "stateMutability": "payable",
      "type": "function"
    },
    {
      "inputs": [
        {
          "internalType": "address",
          "name": "account",
          "type": "address"
        }
      ],
      "name": "balanceOf",
      "outputs": [
        {
          "internalType": "uint256",
          "name": "",
          "type": "uint256"
        }
      ],
      "stateMutability": "view",
      "type": "function"
    },
    {
      "inputs": [
        {
          "internalType": "address",
          "name": "account",
          "type": "address"
        }
      ],
      "name": "depositTo",
      "outputs": [],
      "stateMutability": "payable",
      "type": "function"
    },
    {
      "inputs": [
        {
          "internalType": "address",
          "name": "",
          "type": "address"
        }
      ],
      "name": "deposits",
      "outputs": [
        {
          "internalType": "uint112",
          "name": "deposit",
          "type": "uint112"
        },
        {
          "internalType": "bool",
          "name": "staked",
          "type": "bool"
        },
        {
          "internalType": "uint112",
          "name": "stake",
          "type": "uint112"
        },
        {
          "internalType": "uint32",
          "name": "unstakeDelaySec",
          "type": "uint32"
        },
        {
          "internalType": "uint64",
          "name": "withdrawTime",
          "type": "uint64"
        }
      ],
      "stateMutability": "view",
      "type": "function"
    },
    {
      "inputs": [
        {
          "internalType": "address",
          "name": "account",
          "type": "address"
        }
      ],
      "name": "getDepositInfo",
      "outputs": [
        {
          "components": [
            {
              "internalType": "uint112",
              "name": "deposit",
              "type": "uint112"
            },
            {
              "internalType": "bool",
              "name": "staked",
              "type": "bool"
            },
            {
              "internalType": "uint112",
              "name": "stake",
              "type": "uint112"
            },
            {
              "internalType": "uint32",
              "name": "unstakeDelaySec",
              "type": "uint32"
            },
            {
              "internalType": "uint64",
              "name": "withdrawTime",
              "type": "uint64"
            }
          ],
          "internalType": "struct IStakeManager.DepositInfo",
          "name": "info",
          "type": "tuple"
        }
      ],
      "stateMutability": "view",
      "type": "function"
    },
    {
      "inputs": [
        {
          "internalType": "bytes",
          "name": "initCode",
          "type": "bytes"
        }
      ],
      "name": "getSenderAddress",
      "outputs": [],
      "stateMutability": "nonpayable",
      "type": "function"
    },
    {
      "inputs": [
        {
          "components": [
            {
              "internalType": "address",
              "name": "sender",
              "type": "address"
            },
            {
              "internalType": "uint256",
              "name": "nonce",
              "type": "uint256"
            },
            {
              "internalType": "bytes",
              "name": "initCode",
              "type": "bytes"
            },
            {
              "internalType": "bytes",
              "name": "callData",
              "type": "bytes"
            },
            {
              "internalType": "uint256",
              "name": "callGasLimit",
              "type": "uint256"
            },
            {
              "internalType": "uint256",
              "name": "verificationGasLimit",
              "type": "uint256"
            },
            {
              "internalType": "uint256",
              "name": "preVerificationGas",
              "type": "uint256"
            },
            {
              "internalType": "uint256",
              "name": "maxFeePerGas",
              "type": "uint256"
            },
            {
              "internalType": "uint256",
              "name": "maxPriorityFeePerGas",
              "type": "uint256"
            },
            {
              "internalType": "bytes",
              "name": "paymasterAndData",
              "type": "bytes"
            },
            {
              "internalType": "bytes",
              "name": "signature",
              "type": "bytes"
            }
          ],
          "internalType": "struct UserOperation",
          "name": "userOp",
          "type": "tuple"
        }
      ],
      "name": "getUserOpHash",
      "outputs": [
        {
          "internalType": "bytes32",
          "name": "",
          "type": "bytes32"
        }
      ],
      "stateMutability": "view",
      "type": "function"
    },
    {
      "inputs": [
        {
          "components": [
            {
              "components": [
                {
                  "internalType": "address",
                  "name": "sender",
                  "type": "address"
                },
                {
                  "internalType": "uint256",
                  "name": "nonce",
                  "type": "uint256"
                },
                {
                  "internalType": "bytes",
                  "name": "initCode",
                  "type": "bytes"
                },
                {
                  "internalType": "bytes",
                  "name": "callData",
                  "type": "bytes"
                },
                {
                  "internalType": "uint256",
                  "name": "callGasLimit",
                  "type": "uint256"
                },
                {
                  "internalType": "uint256",
                  "name": "verificationGasLimit",
                  "type": "uint256"
                },
                {
                  "internalType": "uint256",
                  "name": "preVerificationGas",
                  "type": "uint256"
                },
                {
                  "internalType": "uint256",
                  "name": "maxFeePerGas",
                  "type": "uint256"
                },
                {
                  "internalType": "uint256",
                  "name": "maxPriorityFeePerGas",
                  "type": "uint256"
                },
                {
                  "internalType": "bytes",
                  "name": "paymasterAndData",
                  "type": "bytes"
                },
                {
                  "internalType": "bytes",
                  "name": "signature",
                  "type": "bytes"
                }
              ],
              "internalType": "struct UserOperation[]",
              "name": "userOps",
              "type": "tuple[]"
            },
            {
              "internalType": "contract IAggregator",
              "name": "aggregator",
              "type": "address"
            },
            {
              "internalType": "bytes",
              "name": "signature",
              "type": "bytes"
            }
          ],
          "internalType": "struct IEntryPoint.UserOpsPerAggregator[]",
          "name": "opsPerAggregator",
          "type": "tuple[]"
        },
        {
          "internalType": "address payable",
          "name": "beneficiary",
          "type": "address"
        }
      ],
      "name": "handleAggregatedOps",
      "outputs": [],
      "stateMutability": "nonpayable",
      "type": "function"
    },
    {
      "inputs": [
        {
          "components": [
            {
              "internalType": "address",
              "name": "sender",
              "type": "address"
            },
            {
              "internalType": "uint256",
              "name": "nonce",
              "type": "uint256"
            },
            {
              "internalType": "bytes",
              "name": "initCode",
              "type": "bytes"
            },
            {
              "internalType": "bytes",
              "name": "callData",
              "type": "bytes"
            },
            {
              "internalType": "uint256",
              "name": "callGasLimit",
              "type": "uint256"
            },
            {
              "internalType": "uint256",
              "name": "verificationGasLimit",
              "type": "uint256"
            },
            {
              "internalType": "uint256",
              "name": "preVerificationGas",
              "type": "uint256"
            },
            {
              "internalType": "uint256",
              "name": "maxFeePerGas",
              "type": "uint256"
            },
            {
              "internalType": "uint256",
              "name": "maxPriorityFeePerGas",
              "type": "uint256"
            },
            {
              "internalType": "bytes",
              "name": "paymasterAndData",
              "type": "bytes"
            },
            {
              "internalType": "bytes",
              "name": "signature",
              "type": "bytes"
            }
          ],
          "internalType": "struct UserOperation[]",
          "name": "ops",
          "type": "tuple[]"
        },
        {
          "internalType": "address payable",
          "name": "beneficiary",
          "type": "address"
        }
      ],
      "name": "handleOps",
      "outputs": [],
      "stateMutability": "nonpayable",
      "type": "function"
    },
    {
      "inputs": [
        {
          "internalType": "bytes",
          "name": "callData",
          "type": "bytes"
        },
        {
          "components": [
            {
              "components": [
                {
                  "internalType": "address",
                  "name": "sender",
                  "type": "address"
                },
                {
                  "internalType": "uint256",
                  "name": "nonce",
                  "type": "uint256"
                },
                {
                  "internalType": "uint256",
                  "name": "callGasLimit",
                  "type": "uint256"
                },
                {
                  "internalType": "uint256",
                  "name": "verificationGasLimit",
                  "type": "uint256"
                },
                {
                  "internalType": "uint256",
                  "name": "preVerificationGas",
                  "type": "uint256"
                },
                {
                  "internalType": "address",
                  "name": "paymaster",
                  "type": "address"
                },
                {
                  "internalType": "uint256",
                  "name": "maxFeePerGas",
                  "type": "uint256"
                },
                {
                  "internalType": "uint256",
                  "name": "maxPriorityFeePerGas",
                  "type": "uint256"
                }
              ],
              "internalType": "struct EntryPoint.MemoryUserOp",
              "name": "mUserOp",
              "type": "tuple"
            },
            {
              "internalType": "bytes32",
              "name": "userOpHash",
              "type": "bytes32"
            },
            {
              "internalType": "uint256",
              "name": "prefund",
              "type": "uint256"
            },
            {
              "internalType": "uint256",
              "name": "contextOffset",
              "type": "uint256"
            },
            {
              "internalType": "uint256",
              "name": "preOpGas",
              "type": "uint256"
            }
          ],
          "internalType": "struct EntryPoint.UserOpInfo",
          "name": "opInfo",
          "type": "tuple"
        },
        {
          "internalType": "bytes",
          "name": "context",
          "type": "bytes"
        }
      ],
      "name": "innerHandleOp",
      "outputs": [
        {
          "internalType": "uint256",
          "name": "actualGasCost",
          "type": "uint256"
        }
      ],
      "stateMutability": "nonpayable",
      "type": "function"
    },
    {
      "inputs": [
        {
          "components": [
            {
              "internalType": "address",
              "name": "sender",
              "type": "address"
            },
            {
              "internalType": "uint256",
              "name": "nonce",
              "type": "uint256"
            },
            {
              "internalType": "bytes",
              "name": "initCode",
              "type": "bytes"
            },
            {
              "internalType": "bytes",
              "name": "callData",
              "type": "bytes"
            },
            {
              "internalType": "uint256",
              "name": "callGasLimit",
              "type": "uint256"
            },
            {
              "internalType": "uint256",
              "name": "verificationGasLimit",
              "type": "uint256"
            },
            {
              "internalType": "uint256",
              "name": "preVerificationGas",
              "type": "uint256"
            },
            {
              "internalType": "uint256",
              "name": "maxFeePerGas",
              "type": "uint256"
            },
            {
              "internalType": "uint256",
              "name": "maxPriorityFeePerGas",
              "type": "uint256"
            },
            {
              "internalType": "bytes",
              "name": "paymasterAndData",
              "type": "bytes"
            },
            {
              "internalType": "bytes",
              "name": "signature",
              "type": "bytes"
            }
          ],
          "internalType": "struct UserOperation",
          "name": "userOp",
          "type": "tuple"
        }
      ],
      "name": "simulateValidation",
      "outputs": [],
      "stateMutability": "nonpayable",
      "type": "function"
    },
    {
      "inputs": [],
      "name": "unlockStake",
      "outputs": [],
      "stateMutability": "nonpayable",
      "type": "function"
    },
    {
      "inputs": [
        {
          "internalType": "address payable",
          "name": "withdrawAddress",
          "type": "address"
        }
      ],
      "name": "withdrawStake",
      "outputs": [],
      "stateMutability": "nonpayable",
      "type": "function"
    },
    {
      "inputs": [
        {
          "internalType": "address payable",
          "name": "withdrawAddress",
          "type": "address"
        },
        {
          "internalType": "uint256",
          "name": "withdrawAmount",
          "type": "uint256"
        }
      ],
      "name": "withdrawTo",
      "outputs": [],
      "stateMutability": "nonpayable",
      "type": "function"
    },
    {
      "stateMutability": "payable",
      "type": "receive"
    }
  ],
  "bytecode": "60a0604052604051620000129062000050565b604051809103906000f0801580156200002f573d6000803e3d6000fd5b506001600160a01b03166080523480156200004957600080fd5b506200005e565b610213806200312383390190565b6080516130a26200008160003960008181610e7d015261225301526130a26000f3fe6080604052600436106100e15760003560e01c80639b249f691161007f578063bb9fe6bf11610059578063bb9fe6bf146102a7578063c23a5cea146102bc578063ee219423146102dc578063fc7e286d146102fc57600080fd5b80639b249f6914610254578063a619353114610274578063b760faf91461029457600080fd5b8063205c2878116100bb578063205c28781461015c5780634b1d7cf51461017c5780635287ce121461019c57806370a082311461021557600080fd5b80630396cb60146100f65780631d732756146101095780631fad948c1461013c57600080fd5b366100f1576100ef336103b3565b005b600080fd5b6100ef610104366004612493565b61041a565b34801561011557600080fd5b506101296101243660046125b0565b6106a6565b6040519081526020015b60405180910390f35b34801561014857600080fd5b506100ef610157366004612737565b6107f7565b34801561016857600080fd5b506100ef61017736600461278d565b61091f565b34801561018857600080fd5b506100ef610197366004612737565b610a9b565b3480156101a857600080fd5b506101bc6101b73660046127b9565b610dbb565b6040805182516001600160701b03908116825260208085015115159083015283830151169181019190915260608083015163ffffffff16908201526080918201516001600160401b03169181019190915260a001610133565b34801561022157600080fd5b506101296102303660046127b9565b6001600160a01b03166000908152602081905260409020546001600160701b031690565b34801561026057600080fd5b506100ef61026f3660046127d6565b610e66565b34801561028057600080fd5b5061012961028f366004612817565b610f1c565b6100ef6102a23660046127b9565b6103b3565b3480156102b357600080fd5b506100ef610f5e565b3480156102c857600080fd5b506100ef6102d73660046127b9565b611067565b3480156102e857600080fd5b506100ef6102f7366004612817565b61129e565b34801561030857600080fd5b5061036c6103173660046127b9565b600060208190529081526040902080546001909101546001600160701b0380831692600160701b810460ff1692600160781b9091049091169063ffffffff81169064010000000090046001600160401b031685565b604080516001600160701b0396871681529415156020860152929094169183019190915263ffffffff1660608201526001600160401b03909116608082015260a001610133565b6103bd81346113ec565b6001600160a01b03811660008181526020818152604091829020805492516001600160701b03909316835292917f2da466a7b24304f47e87fa2e1e5a81b9831ce54fec19055ce277ca2f39ba42c491015b60405180910390a25050565b33600090815260208190526040902063ffffffff82166104815760405162461bcd60e51b815260206004820152601a60248201527f6d757374207370656369667920756e7374616b652064656c617900000000000060448201526064015b60405180910390fd5b600181015463ffffffff90811690831610156104df5760405162461bcd60e51b815260206004820152601c60248201527f63616e6e6f7420646563726561736520756e7374616b652074696d65000000006044820152606401610478565b80546000906104ff903490600160781b90046001600160701b0316612868565b9050600081116105465760405162461bcd60e51b81526020600482015260126024820152711b9bc81cdd185ad9481cdc1958da599a595960721b6044820152606401610478565b6001600160701b03811061058d5760405162461bcd60e51b815260206004820152600e60248201526d7374616b65206f766572666c6f7760901b6044820152606401610478565b6040805160a08101825283546001600160701b0390811682526001602080840182815286841685870190815263ffffffff808b16606088019081526000608089018181523380835296829052908a902098518954955194518916600160781b02600160781b600160e81b0319951515600160701b026effffffffffffffffffffffffffffff19909716919099161794909417929092169590951786555194909201805492516001600160401b0316640100000000026001600160601b0319909316949093169390931717905590517fa5ae833d0bb1dcd632d98a8b70973e8516812898e19bf27b70071ebc8dc52c0190610699908490879091825263ffffffff16602082015260400190565b60405180910390a2505050565b6000805a90503330146106b857600080fd5b8451600087156107955760008083600001516001600160a01b031684604001518c8c6040516106e8929190612880565b60006040518083038160008787f1925050503d8060008114610726576040519150601f19603f3d011682016040523d82523d6000602084013e61072b565b606091505b5091509150816107925780511561078d5783600001516001600160a01b031689602001517f1c4fada7374c0a9ee8841fc38afe82932dc0f8e69012e927f061a8bae611a2018660200151846040516107849291906128e8565b60405180910390a35b600192505b50505b600087608001515a85030190506107e76000838a8a8a8080601f016020809104026020016040519081016040528093929190818152602001838380828437600092019190915250889250611488915050565b9450505050505b95945050505050565b816000816001600160401b0381111561081257610812612501565b60405190808252806020026020018201604052801561084b57816020015b610838612409565b8152602001906001900390816108305790505b50905060005b828110156108ac576108a28187878481811061086f5761086f612901565b90506020028101906108819190612917565b84848151811061089357610893612901565b6020026020010151600061177a565b5050600101610851565b506000805b8381101561090c57610900818888848181106108cf576108cf612901565b90506020028101906108e19190612917565b8584815181106108f3576108f3612901565b6020026020010151611945565b909101906001016108b1565b506109178482611a0d565b505050505050565b33600090815260208190526040902080546001600160701b03168211156109885760405162461bcd60e51b815260206004820152601960248201527f576974686472617720616d6f756e7420746f6f206c61726765000000000000006044820152606401610478565b805461099e9083906001600160701b0316612938565b81546001600160701b0319166001600160701b0391909116178155604080516001600160a01b03851681526020810184905233917fd1c19fbcd4551a5edfb66d43d2e337c04837afda3482b42bdf569a8fccdae5fb910160405180910390a26000836001600160a01b03168360405160006040518083038185875af1925050503d8060008114610a4a576040519150601f19603f3d011682016040523d82523d6000602084013e610a4f565b606091505b5050905080610a955760405162461bcd60e51b81526020600482015260126024820152716661696c656420746f20776974686472617760701b6044820152606401610478565b50505050565b816000805b82811015610af557858582818110610aba57610aba612901565b9050602002810190610acc919061294f565b610ad69080612965565b610ae1915083612868565b915080610aed816129ae565b915050610aa0565b506000816001600160401b03811115610b1057610b10612501565b604051908082528060200260200182016040528015610b4957816020015b610b36612409565b815260200190600190039081610b2e5790505b5090506000805b84811015610cd25736888883818110610b6b57610b6b612901565b9050602002810190610b7d919061294f565b9050366000610b8c8380612965565b90925090506000610ba360408501602086016127b9565b90508160005b81811015610c1c57610bf988868684818110610bc757610bc7612901565b9050602002810190610bd99190612917565b8b8b81518110610beb57610beb612901565b60200260200101518661177a565b50508780610c06906129ae565b9850508080610c14906129ae565b915050610ba9565b506001600160a01b03821615610cba576001600160a01b03821663e3563a4f8585610c4a60408a018a6129c9565b6040518563ffffffff1660e01b8152600401610c699493929190612b74565b60006040518083038186803b158015610c8157600080fd5b505afa925050508015610c92575060015b610cba5760405163086a9f7560e41b81526001600160a01b0383166004820152602401610478565b50505050508080610cca906129ae565b915050610b50565b50600080915060005b85811015610da65736898983818110610cf657610cf6612901565b9050602002810190610d08919061294f565b9050366000610d178380612965565b90925090508060005b81811015610d8e57610d6288858584818110610d3e57610d3e612901565b9050602002810190610d509190612917565b8b8b815181106108f3576108f3612901565b610d6c9088612868565b965087610d78816129ae565b9850508080610d86906129ae565b915050610d20565b50505050508080610d9e906129ae565b915050610cdb565b50610db18682611a0d565b5050505050505050565b6040805160a081018252600080825260208201819052918101829052606081018290526080810191909152506001600160a01b031660009081526020818152604091829020825160a08101845281546001600160701b038082168352600160701b820460ff16151594830194909452600160781b90049092169282019290925260019091015463ffffffff8116606083015264010000000090046001600160401b0316608082015290565b604051632b870d1b60e11b81526001600160a01b037f0000000000000000000000000000000000000000000000000000000000000000169063570e1a3690610eb49085908590600401612bf1565b6020604051808303816000875af1158015610ed3573d6000803e3d6000fd5b505050506040513d601f19601f82011682018060405250810190610ef79190612c05565b604051633653dc0360e11b81526001600160a01b039091166004820152602401610478565b6000610f2782611abe565b6040805160208101929092523090820152466060820152608001604051602081830303815290604052805190602001209050919050565b336000908152602081905260409020600181015463ffffffff16610f945760405162461bcd60e51b815260040161047890612c22565b8054600160701b900460ff16610fe05760405162461bcd60e51b8152602060048201526011602482015270616c726561647920756e7374616b696e6760781b6044820152606401610478565b6001810154600090610ff89063ffffffff1642612c52565b6001830180546bffffffffffffffff0000000019166401000000006001600160401b03841690810291909117909155835460ff60701b1916845560405190815290915033907ffa9b3c14cc825c412c9ed81b3ba365a5b459439403f18829e572ed53a4180f0a9060200161040e565b3360009081526020819052604090208054600160781b90046001600160701b0316806110cc5760405162461bcd60e51b81526020600482015260146024820152734e6f207374616b6520746f20776974686472617760601b6044820152606401610478565b600182015464010000000090046001600160401b031661112e5760405162461bcd60e51b815260206004820152601d60248201527f6d7573742063616c6c20756e6c6f636b5374616b6528292066697273740000006044820152606401610478565b6001820154426401000000009091046001600160401b031611156111945760405162461bcd60e51b815260206004820152601b60248201527f5374616b65207769746864726177616c206973206e6f742064756500000000006044820152606401610478565b6001820180546001600160601b03191690558154600160781b600160e81b0319168255604080516001600160a01b03851681526020810183905233917fb7c918e0e249f999e965cafeb6c664271b3f4317d296461500e71da39f0cbda3910160405180910390a26000836001600160a01b03168260405160006040518083038185875af1925050503d8060008114611248576040519150601f19603f3d011682016040523d82523d6000602084013e61124d565b606091505b5050905080610a955760405162461bcd60e51b815260206004820152601860248201527f6661696c656420746f207769746864726177207374616b6500000000000000006044820152606401610478565b60005a90506112ab612409565b6000806112bc60008685600161177a565b60408501519193509150600060c08701355a6112d89088612938565b6112e29190612868565b905060006112f7866000015160a00151610dbb565b604080518082018252908201516001600160701b03168152606082015163ffffffff1660208201529091506001600160a01b038616156113cb5761133a86610dbb565b60408051606080820183526001600160a01b038a81168352848401516001600160701b031660208085019182529286015163ffffffff168486019081529451630b0ab6f360e21b8152600481018a9052602481018b9052604481018c905287516064820152928701516084840152835190911660a48301525160c4820152915160e483015291935061010401610478565b82848683604051634d6db6f560e11b81526004016104789493929190612c7d565b6001600160a01b0382166000908152602081905260408120805490919061141d9084906001600160701b0316612868565b90506001600160701b038111156114695760405162461bcd60e51b815260206004820152601060248201526f6465706f736974206f766572666c6f7760801b6044820152606401610478565b81546001600160701b0319166001600160701b03919091161790555050565b6000805a85519091506000908161149e82611ad7565b60a08301519091506001600160a01b0381166114bd5782519350611650565b80935060008851111561165057868202955060028a60028111156114e3576114e3612ca7565b1461155557606083015160405163a9a2340960e01b81526001600160a01b0383169163a9a234099161151d908e908d908c90600401612cbd565b600060405180830381600088803b15801561153757600080fd5b5087f115801561154b573d6000803e3d6000fd5b5050505050611650565b606083015160405163a9a2340960e01b81526001600160a01b0383169163a9a234099161158a908e908d908c90600401612cbd565b600060405180830381600088803b1580156115a457600080fd5b5087f1935050505080156115b6575060015b611650576115c2612d04565b806308c379a0141561160057506115d7612d20565b806115e25750611602565b8b828260405162fa072b60e01b815260040161047893929190612da9565b505b60405162fa072b60e01b8152600481018c90526001600160a01b038216602482015260606044820152600d60648201526c1c1bdcdd13dc081c995d995c9d609a1b608482015260a401610478565b5a850387019650818702955085896040015110156116c65760405162fa072b60e01b8152600481018c90526001600160a01b038216602482015260606044820152601b60648201527f70726566756e642062656c6f772061637475616c476173436f73740000000000608482015260a401610478565b60408901518690036116d885826113ec565b6000808c60028111156116ed576116ed612ca7565b1490508460a001516001600160a01b031685600001516001600160a01b03168c602001517f33fd4d1f25a5461bea901784a6571de6debc16cd0831932c22c6969cd73ba99488602001518c89876040516117629493929190938452602084019290925260408301521515606082015260800190565b60405180910390a45050505050505095945050505050565b60008060005a855190915061178f8782611b08565b61179887610f1c565b6020870152604081015160608201516080830151171760e088013517610100880135176effffffffffffffffffffffffffffff8111156118105760405162461bcd60e51b81526020600482015260136024820152726761732076616c756573206f766572666c6f7760681b6044820152606401610478565b60008061181c84611c01565b905061182b8b8b8b8b85611c4f565b9098509650915061183b43600052565b60a08401516060906001600160a01b0316156118825760006118608d8d8d8688611f3e565b9092509050801580159061187357508781105b1561187c578097505b50611893565b506040805160208101909152600081525b60005a87039050808c60a0013510156119165760a086015160405162fa072b60e01b8152600481018f90526001600160a01b03909116602482015260606044820152602360648201527f55736564206d6f7265207468616e20766572696669636174696f6e4761734c696084820152621b5a5d60ea1b60a482015260c401610478565b60408b018390528160608c015260c08c01355a8803018b60800181815250505050505050505094509492505050565b6000805a90506000611958846060015190565b905030631d73275661196d60608801886129c9565b87856040518563ffffffff1660e01b815260040161198e9493929190612dd3565b6020604051808303816000875af19250505080156119c9575060408051601f3d908101601f191682019092526119c691810190612e86565b60015b611a0157600084608001515a6119df9085612938565b6119e99190612868565b90506119f9876002878585611488565b935050611a04565b92505b50509392505050565b6001600160a01b038216611a595760405162461bcd60e51b8152602060048201526013602482015272696e76616c69642062656e656669636961727960681b6044820152606401610478565b6000826001600160a01b03168260405160006040518083038185875af1925050503d8060008114611aa6576040519150601f19603f3d011682016040523d82523d6000602084013e611aab565b606091505b5050905080611ab957600080fd5b505050565b6000611ac982612175565b805190602001209050919050565b60c081015160e08201516000919080821415611af4575092915050565b611b00824883016121b4565b949350505050565b611b1560208301836127b9565b6001600160a01b0316815260208083013590820152608080830135604083015260a0830135606083015260c0808401359183019190915260e0808401359183019190915261010083013590820152366000611b746101208501856129c9565b90925090508015611bf4576014811015611bd05760405162461bcd60e51b815260206004820152601860248201527f696e76616c6964207061796d6173746572416e644461746100000000000000006044820152606401610478565b611bde601460008385612e9f565b611be791612ec9565b60601c60a0840152610a95565b600060a084015250505050565b60a081015160009081906001600160a01b0316611c1f576001611c22565b60035b60ff1690506000836080015182856060015102856040015101019050611c4784611ad7565b029392505050565b6000806000805a8751909150611c728a82611c6d60408d018d6129c9565b6121cc565b6001600160a01b03871660011415611cf85780600001516001600160a01b0316633ad59dbc6040518163ffffffff1660e01b8152600401602060405180830381865afa925050508015611ce2575060408051601f3d908101601f19168201909252611cdf91810190612c05565b60015b611cf25760009350839650611cf8565b96508693505b805160a0820151600091906001600160a01b038116611d49576001600160a01b0382166000908152602081905260409020546001600160701b0316898111611d4257808a03611d45565b60005b9350505b816001600160a01b0316630825d1fc85606001518e8e602001518e886040518663ffffffff1660e01b8152600401611d849493929190612ef9565b60206040518083038160008887f193505050508015611dc0575060408051601f3d908101601f19168201909252611dbd91810190612e86565b60015b611e3d57611dcc612d04565b806308c379a01415611e0b5750611de1612d20565b80611dec5750611e0d565b8d60008260405162fa072b60e01b815260040161047893929190612da9565b505b60405162fa072b60e01b8152600481018e9052600060248201819052606060448301526064820152608401610478565b8015801590611e4b57504281105b15611e6d578d600060405162fa072b60e01b8152600401610478929190612f31565b95506001600160a01b038116611f29576001600160a01b038216600090815260208190526040902080546001600160701b0316808b1115611f0c578e600060405162fa072b60e01b81526004016104789291909182526001600160a01b03166020820152606060408201819052601a908201527f6163636f756e74206469646e2774207061792070726566756e64000000000000608082015260a00190565b81546001600160701b031916908b90036001600160701b03161790555b5a850397505050505050955095509592505050565b825160a08101516001600160a01b03811660009081526020819052604081208054606094929391906001600160701b03811690600160701b900460ff1680611f9c578b8460405162fa072b60e01b8152600401610478929190612f67565b888210156120025760405162fa072b60e01b8152600481018d90526001600160a01b038516602482015260606044820152601960648201527f7061796d6173746572206465706f73697420746f6f206c6f7700000000000000608482015260a401610478565b8882038360000160006101000a8154816001600160701b0302191690836001600160701b031602179055506000888660600151039050846001600160a01b031663f465c77e828e8e602001518e6040518563ffffffff1660e01b815260040161206d93929190612fa6565b60006040518083038160008887f1935050505080156120ae57506040513d6000823e601f3d908101601f191682016040526120ab9190810190612fcb565b60015b612132576120ba612d04565b806308c379a014156120f857506120cf612d20565b806120da57506120fa565b8d868260405162fa072b60e01b815260040161047893929190612da9565b505b60405162fa072b60e01b8152600481018e90526001600160a01b03861660248201526060604482015260006064820152608401610478565b801580159061214057504281105b15612161578e8760405162fa072b60e01b8152600401610478929190612f31565b909e909d509b505050505050505050505050565b60603660006121886101408501856129c9565b915091508360208184030360405194506020810185016040528085528082602087013750505050919050565b60008183106121c357816121c5565b825b9392505050565b8015610a955782516001600160a01b03163b156122395760405162fa072b60e01b8152600481018590526000602482015260606044820152601a60648201527f73656e64657220616c726561647920636f6e7374727563746564000000000000608482015260a401610478565b604051632b870d1b60e11b81526000906001600160a01b037f0000000000000000000000000000000000000000000000000000000000000000169063570e1a369061228a9086908690600401612bf1565b6020604051808303816000875af11580156122a9573d6000803e3d6000fd5b505050506040513d601f19601f820116820180604052508101906122cd9190612c05565b90506001600160a01b0381166123255760405162fa072b60e01b8152600481018690526000602482015260606044820152600f60648201526e1a5b9a5d10dbd9194819985a5b1959608a1b608482015260a401610478565b83516001600160a01b0382811691161461239d5760405162fa072b60e01b8152600481018690526000602482015260606044820152602560648201527f73656e64657220646f65736e2774206d6174636820696e6974436f6465206164608482015264647265737360d81b60a482015260c401610478565b6001600160a01b0381163b6124025760405162fa072b60e01b8152600481018690526000602482015260606044820152602060648201527f696e6974436f6465206661696c656420746f206372656174652073656e646572608482015260a401610478565b5050505050565b6040518060a0016040528061246e60405180610100016040528060006001600160a01b031681526020016000815260200160008152602001600081526020016000815260200160006001600160a01b0316815260200160008152602001600081525090565b8152602001600080191681526020016000815260200160008152602001600081525090565b6000602082840312156124a557600080fd5b813563ffffffff811681146121c557600080fd5b60008083601f8401126124cb57600080fd5b5081356001600160401b038111156124e257600080fd5b6020830191508360208285010111156124fa57600080fd5b9250929050565b634e487b7160e01b600052604160045260246000fd5b60a081018181106001600160401b038211171561253657612536612501565b60405250565b61010081018181106001600160401b038211171561253657612536612501565b601f8201601f191681016001600160401b038111828210171561258157612581612501565b6040525050565b6001600160a01b038116811461259d57600080fd5b50565b80356125ab81612588565b919050565b60008060008060008587036101c08112156125ca57600080fd5b86356001600160401b03808211156125e157600080fd5b6125ed8a838b016124b9565b9098509650601f19929092019161018091508183121561260c57600080fd5b60405161261881612517565b6101008085121561262857600080fd5b60405194506126368561253c565b61264260208c016125a0565b855260408b0135602086015260608b0135604086015260808b0135606086015260a08b0135608086015261267860c08c016125a0565b60a086015260e08b81013560c0870152908b0135908501529283526101208901356020840152610140890135604084015261016089013560608401528189013560808401529194506101a088013591808311156126d457600080fd5b50506126e2888289016124b9565b969995985093965092949392505050565b60008083601f84011261270557600080fd5b5081356001600160401b0381111561271c57600080fd5b6020830191508360208260051b85010111156124fa57600080fd5b60008060006040848603121561274c57600080fd5b83356001600160401b0381111561276257600080fd5b61276e868287016126f3565b909450925050602084013561278281612588565b809150509250925092565b600080604083850312156127a057600080fd5b82356127ab81612588565b946020939093013593505050565b6000602082840312156127cb57600080fd5b81356121c581612588565b600080602083850312156127e957600080fd5b82356001600160401b038111156127ff57600080fd5b61280b858286016124b9565b90969095509350505050565b60006020828403121561282957600080fd5b81356001600160401b0381111561283f57600080fd5b820161016081850312156121c557600080fd5b634e487b7160e01b600052601160045260246000fd5b6000821982111561287b5761287b612852565b500190565b8183823760009101908152919050565b60005b838110156128ab578181015183820152602001612893565b83811115610a955750506000910152565b600081518084526128d4816020860160208601612890565b601f01601f19169290920160200192915050565b828152604060208201526000611b0060408301846128bc565b634e487b7160e01b600052603260045260246000fd5b6000823561015e1983360301811261292e57600080fd5b9190910192915050565b60008282101561294a5761294a612852565b500390565b60008235605e1983360301811261292e57600080fd5b6000808335601e1984360301811261297c57600080fd5b8301803591506001600160401b0382111561299657600080fd5b6020019150600581901b36038213156124fa57600080fd5b60006000198214156129c2576129c2612852565b5060010190565b6000808335601e198436030181126129e057600080fd5b8301803591506001600160401b038211156129fa57600080fd5b6020019150368190038213156124fa57600080fd5b6000808335601e19843603018112612a2657600080fd5b83016020810192503590506001600160401b03811115612a4557600080fd5b8036038313156124fa57600080fd5b81835281816020850137506000828201602090810191909152601f909101601f19169091010190565b6000610160612a9c84612a8f856125a0565b6001600160a01b03169052565b60208301356020850152612ab36040840184612a0f565b826040870152612ac68387018284612a54565b92505050612ad76060840184612a0f565b8583036060870152612aea838284612a54565b925050506080830135608085015260a083013560a085015260c083013560c085015260e083013560e0850152610100808401358186015250610120612b3181850185612a0f565b86840383880152612b43848284612a54565b9350505050610140612b5781850185612a0f565b86840383880152612b69848284612a54565b979650505050505050565b6040808252810184905260006060600586901b830181019083018783805b89811015612bda57868503605f190184528235368c900361015e19018112612bb8578283fd5b612bc4868d8301612a7d565b9550506020938401939290920191600101612b92565b505050508281036020840152612b69818587612a54565b602081526000611b00602083018486612a54565b600060208284031215612c1757600080fd5b81516121c581612588565b602081526000612c4c60208301600a8152691b9bdd081cdd185ad95960b21b602082015260400190565b92915050565b60006001600160401b03808316818516808303821115612c7457612c74612852565b01949350505050565b84815260208082018590526040820184905282516060830152820151608082015260a081016107ee565b634e487b7160e01b600052602160045260246000fd5b600060038510612cdd57634e487b7160e01b600052602160045260246000fd5b84825260606020830152612cf460608301856128bc565b9050826040830152949350505050565b600060033d1115612d1d5760046000803e5060005160e01c5b90565b600060443d1015612d2e5790565b6040516003193d81016004833e81513d6001600160401b038160248401118184111715612d5d57505050505090565b8285019150815181811115612d755750505050505090565b843d8701016020828501011115612d8f5750505050505090565b612d9e6020828601018761255c565b509095945050505050565b8381526001600160a01b03831660208201526060604082018190526000906107ee908301846128bc565b60006101c0808352612de88184018789612a54565b9050845160018060a01b03808251166020860152602082015160408601526040820151606086015260608201516080860152608082015160a08601528060a08301511660c08601525060c081015160e085015260e08101516101008501525060208501516101208401526040850151610140840152606085015161016084015260808501516101808401528281036101a0840152612b6981856128bc565b600060208284031215612e9857600080fd5b5051919050565b60008085851115612eaf57600080fd5b83861115612ebc57600080fd5b5050820193919092039150565b6001600160601b03198135818116916014851015612ef15780818660140360031b1b83161692505b505092915050565b608081526000612f0c6080830187612a7d565b6020830195909552506001600160a01b03929092166040830152606090910152919050565b9182526001600160a01b0316602082015260606040820181905260079082015266195e1c1a5c995960ca1b608082015260a00190565b8281526001600160a01b0382166020820152606060408201819052600a90820152691b9bdd081cdd185ad95960b21b6080820152600060a08201611b00565b606081526000612fb96060830186612a7d565b60208301949094525060400152919050565b60008060408385031215612fde57600080fd5b82516001600160401b0380821115612ff557600080fd5b818501915085601f83011261300957600080fd5b81518181111561301b5761301b612501565b6040519150613034601f8201601f19166020018361255c565b80825286602082850101111561304957600080fd5b61305a816020840160208601612890565b5060209490940151939593945050505056fea26469706673582212204077236ab2e3a3902add271acc87131ae1358fed9f5b5c0e89873c72bc88753c64736f6c634300080c0033608060405234801561001057600080fd5b506101f3806100206000396000f3fe608060405234801561001057600080fd5b506004361061002b5760003560e01c8063570e1a3614610030575b600080fd5b61004361003e3660046100ec565b61005f565b6040516001600160a01b03909116815260200160405180910390f35b60008061006f601482858761015e565b61007891610188565b60601c9050600061008c846014818861015e565b8080601f016020809104026020016040519081016040528093929190818152602001838380828437600092018290525084519495509360209350849250905082850182875af190506000519350806100e357600093505b50505092915050565b600080602083850312156100ff57600080fd5b823567ffffffffffffffff8082111561011757600080fd5b818501915085601f83011261012b57600080fd5b81358181111561013a57600080fd5b86602082850101111561014c57600080fd5b60209290920196919550909350505050565b6000808585111561016e57600080fd5b8386111561017b57600080fd5b5050820193919092039150565b6bffffffffffffffffffffffff1981358181169160148510156101b55780818660140360031b1b83161692505b50509291505056fea2646970667358221220cd3ff9397b0068eb6062633ac7369a15cf861348a41203ef26cd5b6d4621d8fc64736f6c634300080c0033",
  "bytecodeSha1": "494dfac86b4547f2d66c36bf7e8d7d4c088c9321",
  "compiler": {
    "evm_version": "london",
    "optimizer": {
      "enabled": true,
      "runs": 200
    },
    "version": "0.8.12+commit.f00d7308"
  },
  "contractName": "EntryPoint",
  "language": "Solidity",
  "natspec": {
    "errors": {
      "FailedOp(uint256,address,string)": [
        {
          "params": {
            "opIndex": "- index into the array of ops to the failed one (in simulateValidation, this is always zero)",
            "paymaster": "- if paymaster.validatePaymasterUserOp fails, this will be the paymaster's address. if validateUserOp failed,       this value will be zero (since it failed before accessing the paymaster)",
            "reason": "- revert reason   Should be caught in off-chain handleOps simulation and not happen on-chain.   Useful for mitigating DoS attempts against batchers or for troubleshooting of account/paymaster reverts."
          }
        }
      ],
      "SimulationResult(uint256,uint256,uint256,(uint256,uint256))": [
        {
          "params": {
            "deadline": "until what time this userOp is valid (the minimum value of account and paymaster's deadline)",
            "paymasterInfo": "stake information about the paymaster (if any)",
            "preOpGas": "the gas used for validation (including preValidationGas)",
            "prefund": "the required prefund for this operation"
          }
        }
      ],
      "SimulationResultWithAggregation(uint256,uint256,uint256,(uint256,uint256),(address,uint256,uint256))": [
        {
          "params": {
            "aggregationInfo": "signature aggregation info (if the account requires signature aggregator)      bundler MUST use it to verify the signature, or reject the UserOperation",
            "deadline": "until what time this userOp is valid (the minimum value of account and paymaster's deadline)",
            "paymasterInfo": "stake information about the paymaster (if any)",
            "preOpGas": "the gas used for validation (including preValidationGas)",
            "prefund": "the required prefund for this operation"
          }
        }
      ]
    },
    "kind": "dev",
    "methods": {
      "addStake(uint32)": {
        "notice": "add to the account's stake - amount and delay any pending unstake is first cancelled.",
        "params": {
          "_unstakeDelaySec": "the new lock duration before the deposit can be withdrawn."
        }
      },
      "balanceOf(address)": {
        "notice": "return the deposit (for gas payment) of the account"
      },
      "depositTo(address)": {
        "notice": "add to the deposit of the given account"
      },
      "deposits(address)": {
        "notice": "maps paymaster to their deposits and stakes"
      },
      "getSenderAddress(bytes)": {
        "notice": "Get counterfactual sender address.  Calculate the sender contract address that will be generated by the initCode and salt in the UserOperation. this method always revert, and returns the address in SenderAddressResult error",
        "params": {
          "initCode": "the constructor code to be passed into the UserOperation."
        }
      },
      "getUserOpHash((address,uint256,bytes,bytes,uint256,uint256,uint256,uint256,uint256,bytes,bytes))": {
        "notice": "generate a request Id - unique identifier for this request. the request ID is a hash over the content of the userOp (except the signature), the entrypoint and the chainid."
      },
      "handleAggregatedOps(((address,uint256,bytes,bytes,uint256,uint256,uint256,uint256,uint256,bytes,bytes)[],address,bytes)[],address)": {
        "notice": "Execute a batch of UserOperation with Aggregators",
        "params": {
          "beneficiary": "the address to receive the fees",
          "opsPerAggregator": "the operations to execute, grouped by aggregator (or address(0) for no-aggregator accounts)"
        }
      },
      "handleOps((address,uint256,bytes,bytes,uint256,uint256,uint256,uint256,uint256,bytes,bytes)[],address)": {
        "notice": "Execute a batch of UserOperation. no signature aggregator is used. if any account requires an aggregator (that is, it returned an \"actualAggregator\" when performing simulateValidation), then handleAggregatedOps() must be used instead.",
        "params": {
          "beneficiary": "the address to receive the fees",
          "ops": "the operations to execute"
        }
      },
      "innerHandleOp(bytes,((address,uint256,uint256,uint256,uint256,address,uint256,uint256),bytes32,uint256,uint256,uint256),bytes)": {
        "notice": "inner function to handle a UserOperation. Must be declared \"external\" to open a call context, but it can only be called by handleOps."
      },
      "simulateValidation((address,uint256,bytes,bytes,uint256,uint256,uint256,uint256,uint256,bytes,bytes))": {
        "details": "this method always revert. Successful result is SimulationResult error. other errors are failures.The node must also verify it doesn't use banned opcodes, and that it doesn't reference storage outside the account's data.",
        "notice": "Simulate a call to account.validateUserOp and paymaster.validatePaymasterUserOp.",
        "params": {
          "userOp": "the user operation to validate."
        }
      },
      "unlockStake()": {
        "notice": "attempt to unlock the stake. the value can be withdrawn (using withdrawStake) after the unstake delay."
      },
      "withdrawStake(address)": {
        "notice": "withdraw from the (unlocked) stake. must first call unlockStake and wait for the unstakeDelay to pass",
        "params": {
          "withdrawAddress": "the address to send withdrawn value."
        }
      },
      "withdrawTo(address,uint256)": {
        "notice": "withdraw from the deposit.",
        "params": {
          "withdrawAddress": "the address to send withdrawn value.",
          "withdrawAmount": "the amount to withdraw."
        }
      }
    },
    "version": 1
  },
  "opcodes": "PUSH1 0x80 PUSH1 0x40 MSTORE PUSH1 0x4 CALLDATASIZE LT PUSH2 0xE1 JUMPI PUSH1 0x0 CALLDATALOAD PUSH1 0xE0 SHR DUP1 PUSH4 0x9B249F69 GT PUSH2 0x7F JUMPI DUP1 PUSH4 0xBB9FE6BF GT PUSH2 0x59 JUMPI DUP1 PUSH4 0xBB9FE6BF EQ PUSH2 0x2A7 JUMPI DUP1 PUSH4 0xC23A5CEA EQ PUSH2 0x2BC JUMPI DUP1 PUSH4 0xEE219423 EQ PUSH2 0x2DC JUMPI DUP1 PUSH4 0xFC7E286D EQ PUSH2 0x2FC JUMPI PUSH1 0x0 DUP1 REVERT JUMPDEST DUP1 PUSH4 0x9B249F69 EQ PUSH2 0x254 JUMPI DUP1 PUSH4 0xA6193531 EQ PUSH2 0x274 JUMPI DUP1 PUSH4 0xB760FAF9 EQ PUSH2 0x294 JUMPI PUSH1 0x0 DUP1 REVERT JUMPDEST DUP1 PUSH4 0x205C2878 GT PUSH2 0xBB JUMPI DUP1 PUSH4 0x205C2878 EQ PUSH2 0x15C JUMPI DUP1 PUSH4 0x4B1D7CF5 EQ PUSH2 0x17C JUMPI DUP1 PUSH4 0x5287CE12 EQ PUSH2 0x19C JUMPI DUP1 PUSH4 0x70A08231 EQ PUSH2 0x215 JUMPI PUSH1 0x0 DUP1 REVERT JUMPDEST DUP1 PUSH4 0x396CB60 EQ PUSH2 0xF6 JUMPI DUP1 PUSH4 0x1D732756 EQ PUSH2 0x109 JUMPI DUP1 PUSH4 0x1FAD948C EQ PUSH2 0x13C JUMPI PUSH1 0x0 DUP1 REVERT JUMPDEST CALLDATASIZE PUSH2 0xF1 JUMPI PUSH2 0xEF CALLER PUSH2 0x3B3 JUMP JUMPDEST STOP JUMPDEST PUSH1 0x0 DUP1 REVERT JUMPDEST PUSH2 0xEF PUSH2 0x104 CALLDATASIZE PUSH1 0x4 PUSH2 0x2493 JUMP JUMPDEST PUSH2 0x41A JUMP JUMPDEST CALLVALUE DUP1 ISZERO PUSH2 0x115 JUMPI PUSH1 0x0 DUP1 REVERT JUMPDEST POP PUSH2 0x129 PUSH2 0x124 CALLDATASIZE PUSH1 0x4 PUSH2 0x25B0 JUMP JUMPDEST PUSH2 0x6A6 JUMP JUMPDEST PUSH1 0x40 MLOAD SWAP1 DUP2 MSTORE PUSH1 0x20 ADD JUMPDEST PUSH1 0x40 MLOAD DUP1 SWAP2 SUB SWAP1 RETURN JUMPDEST CALLVALUE DUP1 ISZERO PUSH2 0x148 JUMPI PUSH1 0x0 DUP1 REVERT JUMPDEST POP PUSH2 0xEF PUSH2 0x157 CALLDATASIZE PUSH1 0x4 PUSH2 0x2737 JUMP JUMPDEST PUSH2 0x7F7 JUMP JUMPDEST CALLVALUE DUP1 ISZERO PUSH2 0x168 JUMPI PUSH1 0x0 DUP1 REVERT JUMPDEST POP PUSH2 0xEF PUSH2 0x177 CALLDATASIZE PUSH1 0x4 PUSH2 0x278D JUMP JUMPDEST PUSH2 0x91F JUMP JUMPDEST CALLVALUE DUP1 ISZERO PUSH2 0x188 JUMPI PUSH1 0x0 DUP1 REVERT JUMPDEST POP PUSH2 0xEF PUSH2 0x197 CALLDATASIZE PUSH1 0x4 PUSH2 0x2737 JUMP JUMPDEST PUSH2 0xA9B JUMP JUMPDEST CALLVALUE DUP1 ISZERO PUSH2 0x1A8 JUMPI PUSH1 0x0 DUP1 REVERT JUMPDEST POP PUSH2 0x1BC PUSH2 0x1B7 CALLDATASIZE PUSH1 0x4 PUSH2 0x27B9 JUMP JUMPDEST PUSH2 0xDBB JUMP JUMPDEST PUSH1 0x40 DUP1 MLOAD DUP3 MLOAD PUSH1 0x1 PUSH1 0x1 PUSH1 0x70 SHL SUB SWAP1 DUP2 AND DUP3 MSTORE PUSH1 0x20 DUP1 DUP6 ADD MLOAD ISZERO ISZERO SWAP1 DUP4 ADD MSTORE DUP4 DUP4 ADD MLOAD AND SWAP2 DUP2 ADD SWAP2 SWAP1 SWAP2 MSTORE PUSH1 0x60 DUP1 DUP4 ADD MLOAD PUSH4 0xFFFFFFFF AND SWAP1 DUP3 ADD MSTORE PUSH1 0x80 SWAP2 DUP3 ADD MLOAD PUSH1 0x1 PUSH1 0x1 PUSH1 0x40 SHL SUB AND SWAP2 DUP2 ADD SWAP2 SWAP1 SWAP2 MSTORE PUSH1 0xA0 ADD PUSH2 0x133 JUMP JUMPDEST CALLVALUE DUP1 ISZERO PUSH2 0x221 JUMPI PUSH1 0x0 DUP1 REVERT JUMPDEST POP PUSH2 0x129 PUSH2 0x230 CALLDATASIZE PUSH1 0x4 PUSH2 0x27B9 JUMP JUMPDEST PUSH1 0x1 PUSH1 0x1 PUSH1 0xA0 SHL SUB AND PUSH1 0x0 SWAP1 DUP2 MSTORE PUSH1 0x20 DUP2 SWAP1 MSTORE PUSH1 0x40 SWAP1 KECCAK256 SLOAD PUSH1 0x1 PUSH1 0x1 PUSH1 0x70 SHL SUB AND SWAP1 JUMP JUMPDEST CALLVALUE DUP1 ISZERO PUSH2 0x260 JUMPI PUSH1 0x0 DUP1 REVERT JUMPDEST POP PUSH2 0xEF PUSH2 0x26F CALLDATASIZE PUSH1 0x4 PUSH2 0x27D6 JUMP JUMPDEST PUSH2 0xE66 JUMP JUMPDEST CALLVALUE DUP1 ISZERO PUSH2 0x280 JUMPI PUSH1 0x0 DUP1 REVERT JUMPDEST POP PUSH2 0x129 PUSH2 0x28F CALLDATASIZE PUSH1 0x4 PUSH2 0x2817 JUMP JUMPDEST PUSH2 0xF1C JUMP JUMPDEST PUSH2 0xEF PUSH2 0x2A2 CALLDATASIZE PUSH1 0x4 PUSH2 0x27B9 JUMP JUMPDEST PUSH2 0x3B3 JUMP JUMPDEST CALLVALUE DUP1 ISZERO PUSH2 0x2B3 JUMPI PUSH1 0x0 DUP1 REVERT JUMPDEST POP PUSH2 0xEF PUSH2 0xF5E JUMP JUMPDEST CALLVALUE DUP1 ISZERO PUSH2 0x2C8 JUMPI PUSH1 0x0 DUP1 REVERT JUMPDEST POP PUSH2 0xEF PUSH2 0x2D7 CALLDATASIZE PUSH1 0x4 PUSH2 0x27B9 JUMP JUMPDEST PUSH2 0x1067 JUMP JUMPDEST CALLVALUE DUP1 ISZERO PUSH2 0x2E8 JUMPI PUSH1 0x0 DUP1 REVERT JUMPDEST POP PUSH2 0xEF PUSH2 0x2F7 CALLDATASIZE PUSH1 0x4 PUSH2 0x2817 JUMP JUMPDEST PUSH2 0x129E JUMP JUMPDEST CALLVALUE DUP1 ISZERO PUSH2 0x308 JUMPI PUSH1 0x0 DUP1 REVERT JUMPDEST POP PUSH2 0x36C PUSH2 0x317 CALLDATASIZE PUSH1 0x4 PUSH2 0x27B9 JUMP JUMPDEST PUSH1 0x0 PUSH1 0x20 DUP2 SWAP1 MSTORE SWAP1 DUP2 MSTORE PUSH1 0x40 SWAP1 KECCAK256 DUP1 SLOAD PUSH1 0x1 SWAP1 SWAP2 ADD SLOAD PUSH1 0x1 PUSH1 0x1 PUSH1 0x70 SHL SUB DUP1 DUP4 AND SWAP3 PUSH1 0x1 PUSH1 0x70 SHL DUP2 DIV PUSH1 0xFF AND SWAP3 PUSH1 0x1 PUSH1 0x78 SHL SWAP1 SWAP2 DIV SWAP1 SWAP2 AND SWAP1 PUSH4 0xFFFFFFFF DUP2 AND SWAP1 PUSH5 0x100000000 SWAP1 DIV PUSH1 0x1 PUSH1 0x1 PUSH1 0x40 SHL SUB AND DUP6 JUMP JUMPDEST PUSH1 0x40 DUP1 MLOAD PUSH1 0x1 PUSH1 0x1 PUSH1 0x70 SHL SUB SWAP7 DUP8 AND DUP2 MSTORE SWAP5 ISZERO ISZERO PUSH1 0x20 DUP7 ADD MSTORE SWAP3 SWAP1 SWAP5 AND SWAP2 DUP4 ADD SWAP2 SWAP1 SWAP2 MSTORE PUSH4 0xFFFFFFFF AND PUSH1 0x60 DUP3 ADD MSTORE PUSH1 0x1 PUSH1 0x1 PUSH1 0x40 SHL SUB SWAP1 SWAP2 AND PUSH1 0x80 DUP3 ADD MSTORE PUSH1 0xA0 ADD PUSH2 0x133 JUMP JUMPDEST PUSH2 0x3BD DUP2 CALLVALUE PUSH2 0x13EC JUMP JUMPDEST PUSH1 0x1 PUSH1 0x1 PUSH1 0xA0 SHL SUB DUP2 AND PUSH1 0x0 DUP2 DUP2 MSTORE PUSH1 0x20 DUP2 DUP2 MSTORE PUSH1 0x40 SWAP2 DUP3 SWAP1 KECCAK256 DUP1 SLOAD SWAP3 MLOAD PUSH1 0x1 PUSH1 0x1 PUSH1 0x70 SHL SUB SWAP1 SWAP4 AND DUP4 MSTORE SWAP3 SWAP2 PUSH32 0x2DA466A7B24304F47E87FA2E1E5A81B9831CE54FEC19055CE277CA2F39BA42C4 SWAP2 ADD JUMPDEST PUSH1 0x40 MLOAD DUP1 SWAP2 SUB SWAP1 LOG2 POP POP JUMP JUMPDEST CALLER PUSH1 0x0 SWAP1 DUP2 MSTORE PUSH1 0x20 DUP2 SWAP1 MSTORE PUSH1 0x40 SWAP1 KECCAK256 PUSH4 0xFFFFFFFF DUP3 AND PUSH2 0x481 JUMPI PUSH1 0x40 MLOAD PUSH3 0x461BCD PUSH1 0xE5 SHL DUP2 MSTORE PUSH1 0x20 PUSH1 0x4 DUP3 ADD MSTORE PUSH1 0x1A PUSH1 0x24 DUP3 ADD MSTORE PUSH32 0x6D757374207370656369667920756E7374616B652064656C6179000000000000 PUSH1 0x44 DUP3 ADD MSTORE PUSH1 0x64 ADD JUMPDEST PUSH1 0x40 MLOAD DUP1 SWAP2 SUB SWAP1 REVERT JUMPDEST PUSH1 0x1 DUP2 ADD SLOAD PUSH4 0xFFFFFFFF SWAP1 DUP2 AND SWAP1 DUP4 AND LT ISZERO PUSH2 0x4DF JUMPI PUSH1 0x40 MLOAD PUSH3 0x461BCD PUSH1 0xE5 SHL DUP2 MSTORE PUSH1 0x20 PUSH1 0x4 DUP3 ADD MSTORE PUSH1 0x1C PUSH1 0x24 DUP3 ADD MSTORE PUSH32 0x63616E6E6F7420646563726561736520756E7374616B652074696D6500000000 PUSH1 0x44 DUP3 ADD MSTORE PUSH1 0x64 ADD PUSH2 0x478 JUMP JUMPDEST DUP1 SLOAD PUSH1 0x0 SWAP1 PUSH2 0x4FF SWAP1 CALLVALUE SWAP1 PUSH1 0x1 PUSH1 0x78 SHL SWAP1 DIV PUSH1 0x1 PUSH1 0x1 PUSH1 0x70 SHL SUB AND PUSH2 0x2868 JUMP JUMPDEST SWAP1 POP PUSH1 0x0 DUP2 GT PUSH2 0x546 JUMPI PUSH1 0x40 MLOAD PUSH3 0x461BCD PUSH1 0xE5 SHL DUP2 MSTORE PUSH1 0x20 PUSH1 0x4 DUP3 ADD MSTORE PUSH1 0x12 PUSH1 0x24 DUP3 ADD MSTORE PUSH18 0x1B9BC81CDD185AD9481CDC1958DA599A5959 PUSH1 0x72 SHL PUSH1 0x44 DUP3 ADD MSTORE PUSH1 0x64 ADD PUSH2 0x478 JUMP JUMPDEST PUSH1 0x1 PUSH1 0x1 PUSH1 0x70 SHL SUB DUP2 LT PUSH2 0x58D JUMPI PUSH1 0x40 MLOAD PUSH3 0x461BCD PUSH1 0xE5 SHL DUP2 MSTORE PUSH1 0x20 PUSH1 0x4 DUP3 ADD MSTORE PUSH1 0xE PUSH1 0x24 DUP3 ADD MSTORE PUSH14 0x7374616B65206F766572666C6F77 PUSH1 0x90 SHL PUSH1 0x44 DUP3 ADD MSTORE PUSH1 0x64 ADD PUSH2 0x478 JUMP JUMPDEST PUSH1 0x40 DUP1 MLOAD PUSH1 0xA0 DUP2 ADD DUP3 MSTORE DUP4 SLOAD PUSH1 0x1 PUSH1 0x1 PUSH1 0x70 SHL SUB SWAP1 DUP2 AND DUP3 MSTORE PUSH1 0x1 PUSH1 0x20 DUP1 DUP5 ADD DUP3 DUP2 MSTORE DUP7 DUP5 AND DUP6 DUP8 ADD SWAP1 DUP2 MSTORE PUSH4 0xFFFFFFFF DUP1 DUP12 AND PUSH1 0x60 DUP9 ADD SWAP1 DUP2 MSTORE PUSH1 0x0 PUSH1 0x80 DUP10 ADD DUP2 DUP2 MSTORE CALLER DUP1 DUP4 MSTORE SWAP7 DUP3 SWAP1 MSTORE SWAP1 DUP11 SWAP1 KECCAK256 SWAP9 MLOAD DUP10 SLOAD SWAP6 MLOAD SWAP5 MLOAD DUP10 AND PUSH1 0x1 PUSH1 0x78 SHL MUL PUSH1 0x1 PUSH1 0x78 SHL PUSH1 0x1 PUSH1 0xE8 SHL SUB NOT SWAP6 ISZERO ISZERO PUSH1 0x1 PUSH1 0x70 SHL MUL PUSH15 0xFFFFFFFFFFFFFFFFFFFFFFFFFFFFFF NOT SWAP1 SWAP8 AND SWAP2 SWAP1 SWAP10 AND OR SWAP5 SWAP1 SWAP5 OR SWAP3 SWAP1 SWAP3 AND SWAP6 SWAP1 SWAP6 OR DUP7 SSTORE MLOAD SWAP5 SWAP1 SWAP3 ADD DUP1 SLOAD SWAP3 MLOAD PUSH1 0x1 PUSH1 0x1 PUSH1 0x40 SHL SUB AND PUSH5 0x100000000 MUL PUSH1 0x1 PUSH1 0x1 PUSH1 0x60 SHL SUB NOT SWAP1 SWAP4 AND SWAP5 SWAP1 SWAP4 AND SWAP4 SWAP1 SWAP4 OR OR SWAP1 SSTORE SWAP1 MLOAD PUSH32 0xA5AE833D0BB1DCD632D98A8B70973E8516812898E19BF27B70071EBC8DC52C01 SWAP1 PUSH2 0x699 SWAP1 DUP5 SWAP1 DUP8 SWAP1 SWAP2 DUP3 MSTORE PUSH4 0xFFFFFFFF AND PUSH1 0x20 DUP3 ADD MSTORE PUSH1 0x40 ADD SWAP1 JUMP JUMPDEST PUSH1 0x40 MLOAD DUP1 SWAP2 SUB SWAP1 LOG2 POP POP POP JUMP JUMPDEST PUSH1 0x0 DUP1 GAS SWAP1 POP CALLER ADDRESS EQ PUSH2 0x6B8 JUMPI PUSH1 0x0 DUP1 REVERT JUMPDEST DUP5 MLOAD PUSH1 0x0 DUP8 ISZERO PUSH2 0x795 JUMPI PUSH1 0x0 DUP1 DUP4 PUSH1 0x0 ADD MLOAD PUSH1 0x1 PUSH1 0x1 PUSH1 0xA0 SHL SUB AND DUP5 PUSH1 0x40 ADD MLOAD DUP13 DUP13 PUSH1 0x40 MLOAD PUSH2 0x6E8 SWAP3 SWAP2 SWAP1 PUSH2 0x2880 JUMP JUMPDEST PUSH1 0x0 PUSH1 0x40 MLOAD DUP1 DUP4 SUB DUP2 PUSH1 0x0 DUP8 DUP8 CALL SWAP3 POP POP POP RETURNDATASIZE DUP1 PUSH1 0x0 DUP2 EQ PUSH2 0x726 JUMPI PUSH1 0x40 MLOAD SWAP2 POP PUSH1 0x1F NOT PUSH1 0x3F RETURNDATASIZE ADD AND DUP3 ADD PUSH1 0x40 MSTORE RETURNDATASIZE DUP3 MSTORE RETURNDATASIZE PUSH1 0x0 PUSH1 0x20 DUP5 ADD RETURNDATACOPY PUSH2 0x72B JUMP JUMPDEST PUSH1 0x60 SWAP2 POP JUMPDEST POP SWAP2 POP SWAP2 POP DUP2 PUSH2 0x792 JUMPI DUP1 MLOAD ISZERO PUSH2 0x78D JUMPI DUP4 PUSH1 0x0 ADD MLOAD PUSH1 0x1 PUSH1 0x1 PUSH1 0xA0 SHL SUB AND DUP10 PUSH1 0x20 ADD MLOAD PUSH32 0x1C4FADA7374C0A9EE8841FC38AFE82932DC0F8E69012E927F061A8BAE611A201 DUP7 PUSH1 0x20 ADD MLOAD DUP5 PUSH1 0x40 MLOAD PUSH2 0x784 SWAP3 SWAP2 SWAP1 PUSH2 0x28E8 JUMP JUMPDEST PUSH1 0x40 MLOAD DUP1 SWAP2 SUB SWAP1 LOG3 JUMPDEST PUSH1 0x1 SWAP3 POP JUMPDEST POP POP JUMPDEST PUSH1 0x0 DUP8 PUSH1 0x80 ADD MLOAD GAS DUP6 SUB ADD SWAP1 POP PUSH2 0x7E7 PUSH1 0x0 DUP4 DUP11 DUP11 DUP11 DUP1 DUP1 PUSH1 0x1F ADD PUSH1 0x20 DUP1 SWAP2 DIV MUL PUSH1 0x20 ADD PUSH1 0x40 MLOAD SWAP1 DUP2 ADD PUSH1 0x40 MSTORE DUP1 SWAP4 SWAP3 SWAP2 SWAP1 DUP2 DUP2 MSTORE PUSH1 0x20 ADD DUP4 DUP4 DUP1 DUP3 DUP5 CALLDATACOPY PUSH1 0x0 SWAP3 ADD SWAP2 SWAP1 SWAP2 MSTORE POP DUP9 SWAP3 POP PUSH2 0x1488 SWAP2 POP POP JUMP JUMPDEST SWAP5 POP POP POP POP POP JUMPDEST SWAP6 SWAP5 POP POP POP POP POP JUMP JUMPDEST DUP2 PUSH1 0x0 DUP2 PUSH1 0x1 PUSH1 0x1 PUSH1 0x40 SHL SUB DUP2 GT ISZERO PUSH2 0x812 JUMPI PUSH2 0x812 PUSH2 0x2501 JUMP JUMPDEST PUSH1 0x40 MLOAD SWAP1 DUP1 DUP3 MSTORE DUP1 PUSH1 0x20 MUL PUSH1 0x20 ADD DUP3 ADD PUSH1 0x40 MSTORE DUP1 ISZERO PUSH2 0x84B JUMPI DUP2 PUSH1 0x20 ADD JUMPDEST PUSH2 0x838 PUSH2 0x2409 JUMP JUMPDEST DUP2 MSTORE PUSH1 0x20 ADD SWAP1 PUSH1 0x1 SWAP1 SUB SWAP1 DUP2 PUSH2 0x830 JUMPI SWAP1 POP JUMPDEST POP SWAP1 POP PUSH1 0x0 JUMPDEST DUP3 DUP2 LT ISZERO PUSH2 0x8AC JUMPI PUSH2 0x8A2 DUP2 DUP8 DUP8 DUP5 DUP2 DUP2 LT PUSH2 0x86F JUMPI PUSH2 0x86F PUSH2 0x2901 JUMP JUMPDEST SWAP1 POP PUSH1 0x20 MUL DUP2 ADD SWAP1 PUSH2 0x881 SWAP2 SWAP1 PUSH2 0x2917 JUMP JUMPDEST DUP5 DUP5 DUP2 MLOAD DUP2 LT PUSH2 0x893 JUMPI PUSH2 0x893 PUSH2 0x2901 JUMP JUMPDEST PUSH1 0x20 MUL PUSH1 0x20 ADD ADD MLOAD PUSH1 0x0 PUSH2 0x177A JUMP JUMPDEST POP POP PUSH1 0x1 ADD PUSH2 0x851 JUMP JUMPDEST POP PUSH1 0x0 DUP1 JUMPDEST DUP4 DUP2 LT ISZERO PUSH2 0x90C JUMPI PUSH2 0x900 DUP2 DUP9 DUP9 DUP5 DUP2 DUP2 LT PUSH2 0x8CF JUMPI PUSH2 0x8CF PUSH2 0x2901 JUMP JUMPDEST SWAP1 POP PUSH1 0x20 MUL DUP2 ADD SWAP1 PUSH2 0x8E1 SWAP2 SWAP1 PUSH2 0x2917 JUMP JUMPDEST DUP6 DUP5 DUP2 MLOAD DUP2 LT PUSH2 0x8F3 JUMPI PUSH2 0x8F3 PUSH2 0x2901 JUMP JUMPDEST PUSH1 0x20 MUL PUSH1 0x20 ADD ADD MLOAD PUSH2 0x1945 JUMP JUMPDEST SWAP1 SWAP2 ADD SWAP1 PUSH1 0x1 ADD PUSH2 0x8B1 JUMP JUMPDEST POP PUSH2 0x917 DUP5 DUP3 PUSH2 0x1A0D JUMP JUMPDEST POP POP POP POP POP POP JUMP JUMPDEST CALLER PUSH1 0x0 SWAP1 DUP2 MSTORE PUSH1 0x20 DUP2 SWAP1 MSTORE PUSH1 0x40 SWAP1 KECCAK256 DUP1 SLOAD PUSH1 0x1 PUSH1 0x1 PUSH1 0x70 SHL SUB AND DUP3 GT ISZERO PUSH2 0x988 JUMPI PUSH1 0x40 MLOAD PUSH3 0x461BCD PUSH1 0xE5 SHL DUP2 MSTORE PUSH1 0x20 PUSH1 0x4 DUP3 ADD MSTORE PUSH1 0x19 PUSH1 0x24 DUP3 ADD MSTORE PUSH32 0x576974686472617720616D6F756E7420746F6F206C6172676500000000000000 PUSH1 0x44 DUP3 ADD MSTORE PUSH1 0x64 ADD PUSH2 0x478 JUMP JUMPDEST DUP1 SLOAD PUSH2 0x99E SWAP1 DUP4 SWAP1 PUSH1 0x1 PUSH1 0x1 PUSH1 0x70 SHL SUB AND PUSH2 0x2938 JUMP JUMPDEST DUP2 SLOAD PUSH1 0x1 PUSH1 0x1 PUSH1 0x70 SHL SUB NOT AND PUSH1 0x1 PUSH1 0x1 PUSH1 0x70 SHL SUB SWAP2 SWAP1 SWAP2 AND OR DUP2 SSTORE PUSH1 0x40 DUP1 MLOAD PUSH1 0x1 PUSH1 0x1 PUSH1 0xA0 SHL SUB DUP6 AND DUP2 MSTORE PUSH1 0x20 DUP2 ADD DUP5 SWAP1 MSTORE CALLER SWAP2 PUSH32 0xD1C19FBCD4551A5EDFB66D43D2E337C04837AFDA3482B42BDF569A8FCCDAE5FB SWAP2 ADD PUSH1 0x40 MLOAD DUP1 SWAP2 SUB SWAP1 LOG2 PUSH1 0x0 DUP4 PUSH1 0x1 PUSH1 0x1 PUSH1 0xA0 SHL SUB AND DUP4 PUSH1 0x40 MLOAD PUSH1 0x0 PUSH1 0x40 MLOAD DUP1 DUP4 SUB DUP2 DUP6 DUP8 GAS CALL SWAP3 POP POP POP RETURNDATASIZE DUP1 PUSH1 0x0 DUP2 EQ PUSH2 0xA4A JUMPI PUSH1 0x40 MLOAD SWAP2 POP PUSH1 0x1F NOT PUSH1 0x3F RETURNDATASIZE ADD AND DUP3 ADD PUSH1 0x40 MSTORE RETURNDATASIZE DUP3 MSTORE RETURNDATASIZE PUSH1 0x0 PUSH1 0x20 DUP5 ADD RETURNDATACOPY PUSH2 0xA4F JUMP JUMPDEST PUSH1 0x60 SWAP2 POP JUMPDEST POP POP SWAP1 POP DUP1 PUSH2 0xA95 JUMPI PUSH1 0x40 MLOAD PUSH3 0x461BCD PUSH1 0xE5 SHL DUP2 MSTORE PUSH1 0x20 PUSH1 0x4 DUP3 ADD MSTORE PUSH1 0x12 PUSH1 0x24 DUP3 ADD MSTORE PUSH18 0x6661696C656420746F207769746864726177 PUSH1 0x70 SHL PUSH1 0x44 DUP3 ADD MSTORE PUSH1 0x64 ADD PUSH2 0x478 JUMP JUMPDEST POP POP POP POP JUMP JUMPDEST DUP2 PUSH1 0x0 DUP1 JUMPDEST DUP3 DUP2 LT ISZERO PUSH2 0xAF5 JUMPI DUP6 DUP6 DUP3 DUP2 DUP2 LT PUSH2 0xABA JUMPI PUSH2 0xABA PUSH2 0x2901 JUMP JUMPDEST SWAP1 POP PUSH1 0x20 MUL DUP2 ADD SWAP1 PUSH2 0xACC SWAP2 SWAP1 PUSH2 0x294F JUMP JUMPDEST PUSH2 0xAD6 SWAP1 DUP1 PUSH2 0x2965 JUMP JUMPDEST PUSH2 0xAE1 SWAP2 POP DUP4 PUSH2 0x2868 JUMP JUMPDEST SWAP2 POP DUP1 PUSH2 0xAED DUP2 PUSH2 0x29AE JUMP JUMPDEST SWAP2 POP POP PUSH2 0xAA0 JUMP JUMPDEST POP PUSH1 0x0 DUP2 PUSH1 0x1 PUSH1 0x1 PUSH1 0x40 SHL SUB DUP2 GT ISZERO PUSH2 0xB10 JUMPI PUSH2 0xB10 PUSH2 0x2501 JUMP JUMPDEST PUSH1 0x40 MLOAD SWAP1 DUP1 DUP3 MSTORE DUP1 PUSH1 0x20 MUL PUSH1 0x20 ADD DUP3 ADD PUSH1 0x40 MSTORE DUP1 ISZERO PUSH2 0xB49 JUMPI DUP2 PUSH1 0x20 ADD JUMPDEST PUSH2 0xB36 PUSH2 0x2409 JUMP JUMPDEST DUP2 MSTORE PUSH1 0x20 ADD SWAP1 PUSH1 0x1 SWAP1 SUB SWAP1 DUP2 PUSH2 0xB2E JUMPI SWAP1 POP JUMPDEST POP SWAP1 POP PUSH1 0x0 DUP1 JUMPDEST DUP5 DUP2 LT ISZERO PUSH2 0xCD2 JUMPI CALLDATASIZE DUP9 DUP9 DUP4 DUP2 DUP2 LT PUSH2 0xB6B JUMPI PUSH2 0xB6B PUSH2 0x2901 JUMP JUMPDEST SWAP1 POP PUSH1 0x20 MUL DUP2 ADD SWAP1 PUSH2 0xB7D SWAP2 SWAP1 PUSH2 0x294F JUMP JUMPDEST SWAP1 POP CALLDATASIZE PUSH1 0x0 PUSH2 0xB8C DUP4 DUP1 PUSH2 0x2965 JUMP JUMPDEST SWAP1 SWAP3 POP SWAP1 POP PUSH1 0x0 PUSH2 0xBA3 PUSH1 0x40 DUP6 ADD PUSH1 0x20 DUP7 ADD PUSH2 0x27B9 JUMP JUMPDEST SWAP1 POP DUP2 PUSH1 0x0 JUMPDEST DUP2 DUP2 LT ISZERO PUSH2 0xC1C JUMPI PUSH2 0xBF9 DUP9 DUP7 DUP7 DUP5 DUP2 DUP2 LT PUSH2 0xBC7 JUMPI PUSH2 0xBC7 PUSH2 0x2901 JUMP JUMPDEST SWAP1 POP PUSH1 0x20 MUL DUP2 ADD SWAP1 PUSH2 0xBD9 SWAP2 SWAP1 PUSH2 0x2917 JUMP JUMPDEST DUP12 DUP12 DUP2 MLOAD DUP2 LT PUSH2 0xBEB JUMPI PUSH2 0xBEB PUSH2 0x2901 JUMP JUMPDEST PUSH1 0x20 MUL PUSH1 0x20 ADD ADD MLOAD DUP7 PUSH2 0x177A JUMP JUMPDEST POP POP DUP8 DUP1 PUSH2 0xC06 SWAP1 PUSH2 0x29AE JUMP JUMPDEST SWAP9 POP POP DUP1 DUP1 PUSH2 0xC14 SWAP1 PUSH2 0x29AE JUMP JUMPDEST SWAP2 POP POP PUSH2 0xBA9 JUMP JUMPDEST POP PUSH1 0x1 PUSH1 0x1 PUSH1 0xA0 SHL SUB DUP3 AND ISZERO PUSH2 0xCBA JUMPI PUSH1 0x1 PUSH1 0x1 PUSH1 0xA0 SHL SUB DUP3 AND PUSH4 0xE3563A4F DUP6 DUP6 PUSH2 0xC4A PUSH1 0x40 DUP11 ADD DUP11 PUSH2 0x29C9 JUMP JUMPDEST PUSH1 0x40 MLOAD DUP6 PUSH4 0xFFFFFFFF AND PUSH1 0xE0 SHL DUP2 MSTORE PUSH1 0x4 ADD PUSH2 0xC69 SWAP5 SWAP4 SWAP3 SWAP2 SWAP1 PUSH2 0x2B74 JUMP JUMPDEST PUSH1 0x0 PUSH1 0x40 MLOAD DUP1 DUP4 SUB DUP2 DUP7 DUP1 EXTCODESIZE ISZERO DUP1 ISZERO PUSH2 0xC81 JUMPI PUSH1 0x0 DUP1 REVERT JUMPDEST POP GAS STATICCALL SWAP3 POP POP POP DUP1 ISZERO PUSH2 0xC92 JUMPI POP PUSH1 0x1 JUMPDEST PUSH2 0xCBA JUMPI PUSH1 0x40 MLOAD PUSH4 0x86A9F75 PUSH1 0xE4 SHL DUP2 MSTORE PUSH1 0x1 PUSH1 0x1 PUSH1 0xA0 SHL SUB DUP4 AND PUSH1 0x4 DUP3 ADD MSTORE PUSH1 0x24 ADD PUSH2 0x478 JUMP JUMPDEST POP POP POP POP POP DUP1 DUP1 PUSH2 0xCCA SWAP1 PUSH2 0x29AE JUMP JUMPDEST SWAP2 POP POP PUSH2 0xB50 JUMP JUMPDEST POP PUSH1 0x0 DUP1 SWAP2 POP PUSH1 0x0 JUMPDEST DUP6 DUP2 LT ISZERO PUSH2 0xDA6 JUMPI CALLDATASIZE DUP10 DUP10 DUP4 DUP2 DUP2 LT PUSH2 0xCF6 JUMPI PUSH2 0xCF6 PUSH2 0x2901 JUMP JUMPDEST SWAP1 POP PUSH1 0x20 MUL DUP2 ADD SWAP1 PUSH2 0xD08 SWAP2 SWAP1 PUSH2 0x294F JUMP JUMPDEST SWAP1 POP CALLDATASIZE PUSH1 0x0 PUSH2 0xD17 DUP4 DUP1 PUSH2 0x2965 JUMP JUMPDEST SWAP1 SWAP3 POP SWAP1 POP DUP1 PUSH1 0x0 JUMPDEST DUP2 DUP2 LT ISZERO PUSH2 0xD8E JUMPI PUSH2 0xD62 DUP9 DUP6 DUP6 DUP5 DUP2 DUP2 LT PUSH2 0xD3E JUMPI PUSH2 0xD3E PUSH2 0x2901 JUMP JUMPDEST SWAP1 POP PUSH1 0x20 MUL DUP2 ADD SWAP1 PUSH2 0xD50 SWAP2 SWAP1 PUSH2 0x2917 JUMP JUMPDEST DUP12 DUP12 DUP2 MLOAD DUP2 LT PUSH2 0x8F3 JUMPI PUSH2 0x8F3 PUSH2 0x2901 JUMP JUMPDEST PUSH2 0xD6C SWAP1 DUP9 PUSH2 0x2868 JUMP JUMPDEST SWAP7 POP DUP8 PUSH2 0xD78 DUP2 PUSH2 0x29AE JUMP JUMPDEST SWAP9 POP POP DUP1 DUP1 PUSH2 0xD86 SWAP1 PUSH2 0x29AE JUMP JUMPDEST SWAP2 POP POP PUSH2 0xD20 JUMP JUMPDEST POP POP POP POP POP DUP1 DUP1 PUSH2 0xD9E SWAP1 PUSH2 0x29AE JUMP JUMPDEST SWAP2 POP POP PUSH2 0xCDB JUMP JUMPDEST POP PUSH2 0xDB1 DUP7 DUP3 PUSH2 0x1A0D JUMP JUMPDEST POP POP POP POP POP POP POP POP JUMP JUMPDEST PUSH1 0x40 DUP1 MLOAD PUSH1 0xA0 DUP2 ADD DUP3 MSTORE PUSH1 0x0 DUP1 DUP3 MSTORE PUSH1 0x20 DUP3 ADD DUP2 SWAP1 MSTORE SWAP2 DUP2 ADD DUP3 SWAP1 MSTORE PUSH1 0x60 DUP2 ADD DUP3 SWAP1 MSTORE PUSH1 0x80 DUP2 ADD SWAP2 SWAP1 SWAP2 MSTORE POP PUSH1 0x1 PUSH1 0x1 PUSH1 0xA0 SHL SUB AND PUSH1 0x0 SWAP1 DUP2 MSTORE PUSH1 0x20 DUP2 DUP2 MSTORE PUSH1 0x40 SWAP2 DUP3 SWAP1 KECCAK256 DUP3 MLOAD PUSH1 0xA0 DUP2 ADD DUP5 MSTORE DUP2 SLOAD PUSH1 0x1 PUSH1 0x1 PUSH1 0x70 SHL SUB DUP1 DUP3 AND DUP4 MSTORE PUSH1 0x1 PUSH1 0x70 SHL DUP3 DIV PUSH1 0xFF AND ISZERO ISZERO SWAP5 DUP4 ADD SWAP5 SWAP1 SWAP5 MSTORE PUSH1 0x1 PUSH1 0x78 SHL SWAP1 DIV SWAP1 SWAP3 AND SWAP3 DUP3 ADD SWAP3 SWAP1 SWAP3 MSTORE PUSH1 0x1 SWAP1 SWAP2 ADD SLOAD PUSH4 0xFFFFFFFF DUP2 AND PUSH1 0x60 DUP4 ADD MSTORE PUSH5 0x100000000 SWAP1 DIV PUSH1 0x1 PUSH1 0x1 PUSH1 0x40 SHL SUB AND PUSH1 0x80 DUP3 ADD MSTORE SWAP1 JUMP JUMPDEST PUSH1 0x40 MLOAD PUSH4 0x2B870D1B PUSH1 0xE1 SHL DUP2 MSTORE PUSH1 0x1 PUSH1 0x1 PUSH1 0xA0 SHL SUB PUSH32 0x0 AND SWAP1 PUSH4 0x570E1A36 SWAP1 PUSH2 0xEB4 SWAP1 DUP6 SWAP1 DUP6 SWAP1 PUSH1 0x4 ADD PUSH2 0x2BF1 JUMP JUMPDEST PUSH1 0x20 PUSH1 0x40 MLOAD DUP1 DUP4 SUB DUP2 PUSH1 0x0 DUP8 GAS CALL ISZERO DUP1 ISZERO PUSH2 0xED3 JUMPI RETURNDATASIZE PUSH1 0x0 DUP1 RETURNDATACOPY RETURNDATASIZE PUSH1 0x0 REVERT JUMPDEST POP POP POP POP PUSH1 0x40 MLOAD RETURNDATASIZE PUSH1 0x1F NOT PUSH1 0x1F DUP3 ADD AND DUP3 ADD DUP1 PUSH1 0x40 MSTORE POP DUP2 ADD SWAP1 PUSH2 0xEF7 SWAP2 SWAP1 PUSH2 0x2C05 JUMP JUMPDEST PUSH1 0x40 MLOAD PUSH4 0x3653DC03 PUSH1 0xE1 SHL DUP2 MSTORE PUSH1 0x1 PUSH1 0x1 PUSH1 0xA0 SHL SUB SWAP1 SWAP2 AND PUSH1 0x4 DUP3 ADD MSTORE PUSH1 0x24 ADD PUSH2 0x478 JUMP JUMPDEST PUSH1 0x0 PUSH2 0xF27 DUP3 PUSH2 0x1ABE JUMP JUMPDEST PUSH1 0x40 DUP1 MLOAD PUSH1 0x20 DUP2 ADD SWAP3 SWAP1 SWAP3 MSTORE ADDRESS SWAP1 DUP3 ADD MSTORE CHAINID PUSH1 0x60 DUP3 ADD MSTORE PUSH1 0x80 ADD PUSH1 0x40 MLOAD PUSH1 0x20 DUP2 DUP4 SUB SUB DUP2 MSTORE SWAP1 PUSH1 0x40 MSTORE DUP1 MLOAD SWAP1 PUSH1 0x20 ADD KECCAK256 SWAP1 POP SWAP2 SWAP1 POP JUMP JUMPDEST CALLER PUSH1 0x0 SWAP1 DUP2 MSTORE PUSH1 0x20 DUP2 SWAP1 MSTORE PUSH1 0x40 SWAP1 KECCAK256 PUSH1 0x1 DUP2 ADD SLOAD PUSH4 0xFFFFFFFF AND PUSH2 0xF94 JUMPI PUSH1 0x40 MLOAD PUSH3 0x461BCD PUSH1 0xE5 SHL DUP2 MSTORE PUSH1 0x4 ADD PUSH2 0x478 SWAP1 PUSH2 0x2C22 JUMP JUMPDEST DUP1 SLOAD PUSH1 0x1 PUSH1 0x70 SHL SWAP1 DIV PUSH1 0xFF AND PUSH2 0xFE0 JUMPI PUSH1 0x40 MLOAD PUSH3 0x461BCD PUSH1 0xE5 SHL DUP2 MSTORE PUSH1 0x20 PUSH1 0x4 DUP3 ADD MSTORE PUSH1 0x11 PUSH1 0x24 DUP3 ADD MSTORE PUSH17 0x616C726561647920756E7374616B696E67 PUSH1 0x78 SHL PUSH1 0x44 DUP3 ADD MSTORE PUSH1 0x64 ADD PUSH2 0x478 JUMP JUMPDEST PUSH1 0x1 DUP2 ADD SLOAD PUSH1 0x0 SWAP1 PUSH2 0xFF8 SWAP1 PUSH4 0xFFFFFFFF AND TIMESTAMP PUSH2 0x2C52 JUMP JUMPDEST PUSH1 0x1 DUP4 ADD DUP1 SLOAD PUSH12 0xFFFFFFFFFFFFFFFF00000000 NOT AND PUSH5 0x100000000 PUSH1 0x1 PUSH1 0x1 PUSH1 0x40 SHL SUB DUP5 AND SWAP1 DUP2 MUL SWAP2 SWAP1 SWAP2 OR SWAP1 SWAP2 SSTORE DUP4 SLOAD PUSH1 0xFF PUSH1 0x70 SHL NOT AND DUP5 SSTORE PUSH1 0x40 MLOAD SWAP1 DUP2 MSTORE SWAP1 SWAP2 POP CALLER SWAP1 PUSH32 0xFA9B3C14CC825C412C9ED81B3BA365A5B459439403F18829E572ED53A4180F0A SWAP1 PUSH1 0x20 ADD PUSH2 0x40E JUMP JUMPDEST CALLER PUSH1 0x0 SWAP1 DUP2 MSTORE PUSH1 0x20 DUP2 SWAP1 MSTORE PUSH1 0x40 SWAP1 KECCAK256 DUP1 SLOAD PUSH1 0x1 PUSH1 0x78 SHL SWAP1 DIV PUSH1 0x1 PUSH1 0x1 PUSH1 0x70 SHL SUB AND DUP1 PUSH2 0x10CC JUMPI PUSH1 0x40 MLOAD PUSH3 0x461BCD PUSH1 0xE5 SHL DUP2 MSTORE PUSH1 0x20 PUSH1 0x4 DUP3 ADD MSTORE PUSH1 0x14 PUSH1 0x24 DUP3 ADD MSTORE PUSH20 0x4E6F207374616B6520746F207769746864726177 PUSH1 0x60 SHL PUSH1 0x44 DUP3 ADD MSTORE PUSH1 0x64 ADD PUSH2 0x478 JUMP JUMPDEST PUSH1 0x1 DUP3 ADD SLOAD PUSH5 0x100000000 SWAP1 DIV PUSH1 0x1 PUSH1 0x1 PUSH1 0x40 SHL SUB AND PUSH2 0x112E JUMPI PUSH1 0x40 MLOAD PUSH3 0x461BCD PUSH1 0xE5 SHL DUP2 MSTORE PUSH1 0x20 PUSH1 0x4 DUP3 ADD MSTORE PUSH1 0x1D PUSH1 0x24 DUP3 ADD MSTORE PUSH32 0x6D7573742063616C6C20756E6C6F636B5374616B652829206669727374000000 PUSH1 0x44 DUP3 ADD MSTORE PUSH1 0x64 ADD PUSH2 0x478 JUMP JUMPDEST PUSH1 0x1 DUP3 ADD SLOAD TIMESTAMP PUSH5 0x100000000 SWAP1 SWAP2 DIV PUSH1 0x1 PUSH1 0x1 PUSH1 0x40 SHL SUB AND GT ISZERO PUSH2 0x1194 JUMPI PUSH1 0x40 MLOAD PUSH3 0x461BCD PUSH1 0xE5 SHL DUP2 MSTORE PUSH1 0x20 PUSH1 0x4 DUP3 ADD MSTORE PUSH1 0x1B PUSH1 0x24 DUP3 ADD MSTORE PUSH32 0x5374616B65207769746864726177616C206973206E6F74206475650000000000 PUSH1 0x44 DUP3 ADD MSTORE PUSH1 0x64 ADD PUSH2 0x478 JUMP JUMPDEST PUSH1 0x1 DUP3 ADD DUP1 SLOAD PUSH1 0x1 PUSH1 0x1 PUSH1 0x60 SHL SUB NOT AND SWAP1 SSTORE DUP2 SLOAD PUSH1 0x1 PUSH1 0x78 SHL PUSH1 0x1 PUSH1 0xE8 SHL SUB NOT AND DUP3 SSTORE PUSH1 0x40 DUP1 MLOAD PUSH1 0x1 PUSH1 0x1 PUSH1 0xA0 SHL SUB DUP6 AND DUP2 MSTORE PUSH1 0x20 DUP2 ADD DUP4 SWAP1 MSTORE CALLER SWAP2 PUSH32 0xB7C918E0E249F999E965CAFEB6C664271B3F4317D296461500E71DA39F0CBDA3 SWAP2 ADD PUSH1 0x40 MLOAD DUP1 SWAP2 SUB SWAP1 LOG2 PUSH1 0x0 DUP4 PUSH1 0x1 PUSH1 0x1 PUSH1 0xA0 SHL SUB AND DUP3 PUSH1 0x40 MLOAD PUSH1 0x0 PUSH1 0x40 MLOAD DUP1 DUP4 SUB DUP2 DUP6 DUP8 GAS CALL SWAP3 POP POP POP RETURNDATASIZE DUP1 PUSH1 0x0 DUP2 EQ PUSH2 0x1248 JUMPI PUSH1 0x40 MLOAD SWAP2 POP PUSH1 0x1F NOT PUSH1 0x3F RETURNDATASIZE ADD AND DUP3 ADD PUSH1 0x40 MSTORE RETURNDATASIZE DUP3 MSTORE RETURNDATASIZE PUSH1 0x0 PUSH1 0x20 DUP5 ADD RETURNDATACOPY PUSH2 0x124D JUMP JUMPDEST PUSH1 0x60 SWAP2 POP JUMPDEST POP POP SWAP1 POP DUP1 PUSH2 0xA95 JUMPI PUSH1 0x40 MLOAD PUSH3 0x461BCD PUSH1 0xE5 SHL DUP2 MSTORE PUSH1 0x20 PUSH1 0x4 DUP3 ADD MSTORE PUSH1 0x18 PUSH1 0x24 DUP3 ADD MSTORE PUSH32 0x6661696C656420746F207769746864726177207374616B650000000000000000 PUSH1 0x44 DUP3 ADD MSTORE PUSH1 0x64 ADD PUSH2 0x478 JUMP JUMPDEST PUSH1 0x0 GAS SWAP1 POP PUSH2 0x12AB PUSH2 0x2409 JUMP JUMPDEST PUSH1 0x0 DUP1 PUSH2 0x12BC PUSH1 0x0 DUP7 DUP6 PUSH1 0x1 PUSH2 0x177A JUMP JUMPDEST PUSH1 0x40 DUP6 ADD MLOAD SWAP2 SWAP4 POP SWAP2 POP PUSH1 0x0 PUSH1 0xC0 DUP8 ADD CALLDATALOAD GAS PUSH2 0x12D8 SWAP1 DUP9 PUSH2 0x2938 JUMP JUMPDEST PUSH2 0x12E2 SWAP2 SWAP1 PUSH2 0x2868 JUMP JUMPDEST SWAP1 POP PUSH1 0x0 PUSH2 0x12F7 DUP7 PUSH1 0x0 ADD MLOAD PUSH1 0xA0 ADD MLOAD PUSH2 0xDBB JUMP JUMPDEST PUSH1 0x40 DUP1 MLOAD DUP1 DUP3 ADD DUP3 MSTORE SWAP1 DUP3 ADD MLOAD PUSH1 0x1 PUSH1 0x1 PUSH1 0x70 SHL SUB AND DUP2 MSTORE PUSH1 0x60 DUP3 ADD MLOAD PUSH4 0xFFFFFFFF AND PUSH1 0x20 DUP3 ADD MSTORE SWAP1 SWAP2 POP PUSH1 0x1 PUSH1 0x1 PUSH1 0xA0 SHL SUB DUP7 AND ISZERO PUSH2 0x13CB JUMPI PUSH2 0x133A DUP7 PUSH2 0xDBB JUMP JUMPDEST PUSH1 0x40 DUP1 MLOAD PUSH1 0x60 DUP1 DUP3 ADD DUP4 MSTORE PUSH1 0x1 PUSH1 0x1 PUSH1 0xA0 SHL SUB DUP11 DUP2 AND DUP4 MSTORE DUP5 DUP5 ADD MLOAD PUSH1 0x1 PUSH1 0x1 PUSH1 0x70 SHL SUB AND PUSH1 0x20 DUP1 DUP6 ADD SWAP2 DUP3 MSTORE SWAP3 DUP7 ADD MLOAD PUSH4 0xFFFFFFFF AND DUP5 DUP7 ADD SWAP1 DUP2 MSTORE SWAP5 MLOAD PUSH4 0xB0AB6F3 PUSH1 0xE2 SHL DUP2 MSTORE PUSH1 0x4 DUP2 ADD DUP11 SWAP1 MSTORE PUSH1 0x24 DUP2 ADD DUP12 SWAP1 MSTORE PUSH1 0x44 DUP2 ADD DUP13 SWAP1 MSTORE DUP8 MLOAD PUSH1 0x64 DUP3 ADD MSTORE SWAP3 DUP8 ADD MLOAD PUSH1 0x84 DUP5 ADD MSTORE DUP4 MLOAD SWAP1 SWAP2 AND PUSH1 0xA4 DUP4 ADD MSTORE MLOAD PUSH1 0xC4 DUP3 ADD MSTORE SWAP2 MLOAD PUSH1 0xE4 DUP4 ADD MSTORE SWAP2 SWAP4 POP PUSH2 0x104 ADD PUSH2 0x478 JUMP JUMPDEST DUP3 DUP5 DUP7 DUP4 PUSH1 0x40 MLOAD PUSH4 0x4D6DB6F5 PUSH1 0xE1 SHL DUP2 MSTORE PUSH1 0x4 ADD PUSH2 0x478 SWAP5 SWAP4 SWAP3 SWAP2 SWAP1 PUSH2 0x2C7D JUMP JUMPDEST PUSH1 0x1 PUSH1 0x1 PUSH1 0xA0 SHL SUB DUP3 AND PUSH1 0x0 SWAP1 DUP2 MSTORE PUSH1 0x20 DUP2 SWAP1 MSTORE PUSH1 0x40 DUP2 KECCAK256 DUP1 SLOAD SWAP1 SWAP2 SWAP1 PUSH2 0x141D SWAP1 DUP5 SWAP1 PUSH1 0x1 PUSH1 0x1 PUSH1 0x70 SHL SUB AND PUSH2 0x2868 JUMP JUMPDEST SWAP1 POP PUSH1 0x1 PUSH1 0x1 PUSH1 0x70 SHL SUB DUP2 GT ISZERO PUSH2 0x1469 JUMPI PUSH1 0x40 MLOAD PUSH3 0x461BCD PUSH1 0xE5 SHL DUP2 MSTORE PUSH1 0x20 PUSH1 0x4 DUP3 ADD MSTORE PUSH1 0x10 PUSH1 0x24 DUP3 ADD MSTORE PUSH16 0x6465706F736974206F766572666C6F77 PUSH1 0x80 SHL PUSH1 0x44 DUP3 ADD MSTORE PUSH1 0x64 ADD PUSH2 0x478 JUMP JUMPDEST DUP2 SLOAD PUSH1 0x1 PUSH1 0x1 PUSH1 0x70 SHL SUB NOT AND PUSH1 0x1 PUSH1 0x1 PUSH1 0x70 SHL SUB SWAP2 SWAP1 SWAP2 AND OR SWAP1 SSTORE POP POP JUMP JUMPDEST PUSH1 0x0 DUP1 GAS DUP6 MLOAD SWAP1 SWAP2 POP PUSH1 0x0 SWAP1 DUP2 PUSH2 0x149E DUP3 PUSH2 0x1AD7 JUMP JUMPDEST PUSH1 0xA0 DUP4 ADD MLOAD SWAP1 SWAP2 POP PUSH1 0x1 PUSH1 0x1 PUSH1 0xA0 SHL SUB DUP2 AND PUSH2 0x14BD JUMPI DUP3 MLOAD SWAP4 POP PUSH2 0x1650 JUMP JUMPDEST DUP1 SWAP4 POP PUSH1 0x0 DUP9 MLOAD GT ISZERO PUSH2 0x1650 JUMPI DUP7 DUP3 MUL SWAP6 POP PUSH1 0x2 DUP11 PUSH1 0x2 DUP2 GT ISZERO PUSH2 0x14E3 JUMPI PUSH2 0x14E3 PUSH2 0x2CA7 JUMP JUMPDEST EQ PUSH2 0x1555 JUMPI PUSH1 0x60 DUP4 ADD MLOAD PUSH1 0x40 MLOAD PUSH4 0xA9A23409 PUSH1 0xE0 SHL DUP2 MSTORE PUSH1 0x1 PUSH1 0x1 PUSH1 0xA0 SHL SUB DUP4 AND SWAP2 PUSH4 0xA9A23409 SWAP2 PUSH2 0x151D SWAP1 DUP15 SWAP1 DUP14 SWAP1 DUP13 SWAP1 PUSH1 0x4 ADD PUSH2 0x2CBD JUMP JUMPDEST PUSH1 0x0 PUSH1 0x40 MLOAD DUP1 DUP4 SUB DUP2 PUSH1 0x0 DUP9 DUP1 EXTCODESIZE ISZERO DUP1 ISZERO PUSH2 0x1537 JUMPI PUSH1 0x0 DUP1 REVERT JUMPDEST POP DUP8 CALL ISZERO DUP1 ISZERO PUSH2 0x154B JUMPI RETURNDATASIZE PUSH1 0x0 DUP1 RETURNDATACOPY RETURNDATASIZE PUSH1 0x0 REVERT JUMPDEST POP POP POP POP POP PUSH2 0x1650 JUMP JUMPDEST PUSH1 0x60 DUP4 ADD MLOAD PUSH1 0x40 MLOAD PUSH4 0xA9A23409 PUSH1 0xE0 SHL DUP2 MSTORE PUSH1 0x1 PUSH1 0x1 PUSH1 0xA0 SHL SUB DUP4 AND SWAP2 PUSH4 0xA9A23409 SWAP2 PUSH2 0x158A SWAP1 DUP15 SWAP1 DUP14 SWAP1 DUP13 SWAP1 PUSH1 0x4 ADD PUSH2 0x2CBD JUMP JUMPDEST PUSH1 0x0 PUSH1 0x40 MLOAD DUP1 DUP4 SUB DUP2 PUSH1 0x0 DUP9 DUP1 EXTCODESIZE ISZERO DUP1 ISZERO PUSH2 0x15A4 JUMPI PUSH1 0x0 DUP1 REVERT JUMPDEST POP DUP8 CALL SWAP4 POP POP POP POP DUP1 ISZERO PUSH2 0x15B6 JUMPI POP PUSH1 0x1 JUMPDEST PUSH2 0x1650 JUMPI PUSH2 0x15C2 PUSH2 0x2D04 JUMP JUMPDEST DUP1 PUSH4 0x8C379A0 EQ ISZERO PUSH2 0x1600 JUMPI POP PUSH2 0x15D7 PUSH2 0x2D20 JUMP JUMPDEST DUP1 PUSH2 0x15E2 JUMPI POP PUSH2 0x1602 JUMP JUMPDEST DUP12 DUP3 DUP3 PUSH1 0x40 MLOAD PUSH3 0xFA072B PUSH1 0xE0 SHL DUP2 MSTORE PUSH1 0x4 ADD PUSH2 0x478 SWAP4 SWAP3 SWAP2 SWAP1 PUSH2 0x2DA9 JUMP JUMPDEST POP JUMPDEST PUSH1 0x40 MLOAD PUSH3 0xFA072B PUSH1 0xE0 SHL DUP2 MSTORE PUSH1 0x4 DUP2 ADD DUP13 SWAP1 MSTORE PUSH1 0x1 PUSH1 0x1 PUSH1 0xA0 SHL SUB DUP3 AND PUSH1 0x24 DUP3 ADD MSTORE PUSH1 0x60 PUSH1 0x44 DUP3 ADD MSTORE PUSH1 0xD PUSH1 0x64 DUP3 ADD MSTORE PUSH13 0x1C1BDCDD13DC081C995D995C9D PUSH1 0x9A SHL PUSH1 0x84 DUP3 ADD MSTORE PUSH1 0xA4 ADD PUSH2 0x478 JUMP JUMPDEST GAS DUP6 SUB DUP8 ADD SWAP7 POP DUP2 DUP8 MUL SWAP6 POP DUP6 DUP10 PUSH1 0x40 ADD MLOAD LT ISZERO PUSH2 0x16C6 JUMPI PUSH1 0x40 MLOAD PUSH3 0xFA072B PUSH1 0xE0 SHL DUP2 MSTORE PUSH1 0x4 DUP2 ADD DUP13 SWAP1 MSTORE PUSH1 0x1 PUSH1 0x1 PUSH1 0xA0 SHL SUB DUP3 AND PUSH1 0x24 DUP3 ADD MSTORE PUSH1 0x60 PUSH1 0x44 DUP3 ADD MSTORE PUSH1 0x1B PUSH1 0x64 DUP3 ADD MSTORE PUSH32 0x70726566756E642062656C6F772061637475616C476173436F73740000000000 PUSH1 0x84 DUP3 ADD MSTORE PUSH1 0xA4 ADD PUSH2 0x478 JUMP JUMPDEST PUSH1 0x40 DUP10 ADD MLOAD DUP7 SWAP1 SUB PUSH2 0x16D8 DUP6 DUP3 PUSH2 0x13EC JUMP JUMPDEST PUSH1 0x0 DUP1 DUP13 PUSH1 0x2 DUP2 GT ISZERO PUSH2 0x16ED JUMPI PUSH2 0x16ED PUSH2 0x2CA7 JUMP JUMPDEST EQ SWAP1 POP DUP5 PUSH1 0xA0 ADD MLOAD PUSH1 0x1 PUSH1 0x1 PUSH1 0xA0 SHL SUB AND DUP6 PUSH1 0x0 ADD MLOAD PUSH1 0x1 PUSH1 0x1 PUSH1 0xA0 SHL SUB AND DUP13 PUSH1 0x20 ADD MLOAD PUSH32 0x33FD4D1F25A5461BEA901784A6571DE6DEBC16CD0831932C22C6969CD73BA994 DUP9 PUSH1 0x20 ADD MLOAD DUP13 DUP10 DUP8 PUSH1 0x40 MLOAD PUSH2 0x1762 SWAP5 SWAP4 SWAP3 SWAP2 SWAP1 SWAP4 DUP5 MSTORE PUSH1 0x20 DUP5 ADD SWAP3 SWAP1 SWAP3 MSTORE PUSH1 0x40 DUP4 ADD MSTORE ISZERO ISZERO PUSH1 0x60 DUP3 ADD MSTORE PUSH1 0x80 ADD SWAP1 JUMP JUMPDEST PUSH1 0x40 MLOAD DUP1 SWAP2 SUB SWAP1 LOG4 POP POP POP POP POP POP POP SWAP6 SWAP5 POP POP POP POP POP JUMP JUMPDEST PUSH1 0x0 DUP1 PUSH1 0x0 GAS DUP6 MLOAD SWAP1 SWAP2 POP PUSH2 0x178F DUP8 DUP3 PUSH2 0x1B08 JUMP JUMPDEST PUSH2 0x1798 DUP8 PUSH2 0xF1C JUMP JUMPDEST PUSH1 0x20 DUP8 ADD MSTORE PUSH1 0x40 DUP2 ADD MLOAD PUSH1 0x60 DUP3 ADD MLOAD PUSH1 0x80 DUP4 ADD MLOAD OR OR PUSH1 0xE0 DUP9 ADD CALLDATALOAD OR PUSH2 0x100 DUP9 ADD CALLDATALOAD OR PUSH15 0xFFFFFFFFFFFFFFFFFFFFFFFFFFFFFF DUP2 GT ISZERO PUSH2 0x1810 JUMPI PUSH1 0x40 MLOAD PUSH3 0x461BCD PUSH1 0xE5 SHL DUP2 MSTORE PUSH1 0x20 PUSH1 0x4 DUP3 ADD MSTORE PUSH1 0x13 PUSH1 0x24 DUP3 ADD MSTORE PUSH19 0x6761732076616C756573206F766572666C6F77 PUSH1 0x68 SHL PUSH1 0x44 DUP3 ADD MSTORE PUSH1 0x64 ADD PUSH2 0x478 JUMP JUMPDEST PUSH1 0x0 DUP1 PUSH2 0x181C DUP5 PUSH2 0x1C01 JUMP JUMPDEST SWAP1 POP PUSH2 0x182B DUP12 DUP12 DUP12 DUP12 DUP6 PUSH2 0x1C4F JUMP JUMPDEST SWAP1 SWAP9 POP SWAP7 POP SWAP2 POP PUSH2 0x183B NUMBER PUSH1 0x0 MSTORE JUMP JUMPDEST PUSH1 0xA0 DUP5 ADD MLOAD PUSH1 0x60 SWAP1 PUSH1 0x1 PUSH1 0x1 PUSH1 0xA0 SHL SUB AND ISZERO PUSH2 0x1882 JUMPI PUSH1 0x0 PUSH2 0x1860 DUP14 DUP14 DUP14 DUP7 DUP9 PUSH2 0x1F3E JUMP JUMPDEST SWAP1 SWAP3 POP SWAP1 POP DUP1 ISZERO DUP1 ISZERO SWAP1 PUSH2 0x1873 JUMPI POP DUP8 DUP2 LT JUMPDEST ISZERO PUSH2 0x187C JUMPI DUP1 SWAP8 POP JUMPDEST POP PUSH2 0x1893 JUMP JUMPDEST POP PUSH1 0x40 DUP1 MLOAD PUSH1 0x20 DUP2 ADD SWAP1 SWAP2 MSTORE PUSH1 0x0 DUP2 MSTORE JUMPDEST PUSH1 0x0 GAS DUP8 SUB SWAP1 POP DUP1 DUP13 PUSH1 0xA0 ADD CALLDATALOAD LT ISZERO PUSH2 0x1916 JUMPI PUSH1 0xA0 DUP7 ADD MLOAD PUSH1 0x40 MLOAD PUSH3 0xFA072B PUSH1 0xE0 SHL DUP2 MSTORE PUSH1 0x4 DUP2 ADD DUP16 SWAP1 MSTORE PUSH1 0x1 PUSH1 0x1 PUSH1 0xA0 SHL SUB SWAP1 SWAP2 AND PUSH1 0x24 DUP3 ADD MSTORE PUSH1 0x60 PUSH1 0x44 DUP3 ADD MSTORE PUSH1 0x23 PUSH1 0x64 DUP3 ADD MSTORE PUSH32 0x55736564206D6F7265207468616E20766572696669636174696F6E4761734C69 PUSH1 0x84 DUP3 ADD MSTORE PUSH3 0x1B5A5D PUSH1 0xEA SHL PUSH1 0xA4 DUP3 ADD MSTORE PUSH1 0xC4 ADD PUSH2 0x478 JUMP JUMPDEST PUSH1 0x40 DUP12 ADD DUP4 SWAP1 MSTORE DUP2 PUSH1 0x60 DUP13 ADD MSTORE PUSH1 0xC0 DUP13 ADD CALLDATALOAD GAS DUP9 SUB ADD DUP12 PUSH1 0x80 ADD DUP2 DUP2 MSTORE POP POP POP POP POP POP POP POP POP SWAP5 POP SWAP5 SWAP3 POP POP POP JUMP JUMPDEST PUSH1 0x0 DUP1 GAS SWAP1 POP PUSH1 0x0 PUSH2 0x1958 DUP5 PUSH1 0x60 ADD MLOAD SWAP1 JUMP JUMPDEST SWAP1 POP ADDRESS PUSH4 0x1D732756 PUSH2 0x196D PUSH1 0x60 DUP9 ADD DUP9 PUSH2 0x29C9 JUMP JUMPDEST DUP8 DUP6 PUSH1 0x40 MLOAD DUP6 PUSH4 0xFFFFFFFF AND PUSH1 0xE0 SHL DUP2 MSTORE PUSH1 0x4 ADD PUSH2 0x198E SWAP5 SWAP4 SWAP3 SWAP2 SWAP1 PUSH2 0x2DD3 JUMP JUMPDEST PUSH1 0x20 PUSH1 0x40 MLOAD DUP1 DUP4 SUB DUP2 PUSH1 0x0 DUP8 GAS CALL SWAP3 POP POP POP DUP1 ISZERO PUSH2 0x19C9 JUMPI POP PUSH1 0x40 DUP1 MLOAD PUSH1 0x1F RETURNDATASIZE SWAP1 DUP2 ADD PUSH1 0x1F NOT AND DUP3 ADD SWAP1 SWAP3 MSTORE PUSH2 0x19C6 SWAP2 DUP2 ADD SWAP1 PUSH2 0x2E86 JUMP JUMPDEST PUSH1 0x1 JUMPDEST PUSH2 0x1A01 JUMPI PUSH1 0x0 DUP5 PUSH1 0x80 ADD MLOAD GAS PUSH2 0x19DF SWAP1 DUP6 PUSH2 0x2938 JUMP JUMPDEST PUSH2 0x19E9 SWAP2 SWAP1 PUSH2 0x2868 JUMP JUMPDEST SWAP1 POP PUSH2 0x19F9 DUP8 PUSH1 0x2 DUP8 DUP6 DUP6 PUSH2 0x1488 JUMP JUMPDEST SWAP4 POP POP PUSH2 0x1A04 JUMP JUMPDEST SWAP3 POP JUMPDEST POP POP SWAP4 SWAP3 POP POP POP JUMP JUMPDEST PUSH1 0x1 PUSH1 0x1 PUSH1 0xA0 SHL SUB DUP3 AND PUSH2 0x1A59 JUMPI PUSH1 0x40 MLOAD PUSH3 0x461BCD PUSH1 0xE5 SHL DUP2 MSTORE PUSH1 0x20 PUSH1 0x4 DUP3 ADD MSTORE PUSH1 0x13 PUSH1 0x24 DUP3 ADD MSTORE PUSH19 0x696E76616C69642062656E6566696369617279 PUSH1 0x68 SHL PUSH1 0x44 DUP3 ADD MSTORE PUSH1 0x64 ADD PUSH2 0x478 JUMP JUMPDEST PUSH1 0x0 DUP3 PUSH1 0x1 PUSH1 0x1 PUSH1 0xA0 SHL SUB AND DUP3 PUSH1 0x40 MLOAD PUSH1 0x0 PUSH1 0x40 MLOAD DUP1 DUP4 SUB DUP2 DUP6 DUP8 GAS CALL SWAP3 POP POP POP RETURNDATASIZE DUP1 PUSH1 0x0 DUP2 EQ PUSH2 0x1AA6 JUMPI PUSH1 0x40 MLOAD SWAP2 POP PUSH1 0x1F NOT PUSH1 0x3F RETURNDATASIZE ADD AND DUP3 ADD PUSH1 0x40 MSTORE RETURNDATASIZE DUP3 MSTORE RETURNDATASIZE PUSH1 0x0 PUSH1 0x20 DUP5 ADD RETURNDATACOPY PUSH2 0x1AAB JUMP JUMPDEST PUSH1 0x60 SWAP2 POP JUMPDEST POP POP SWAP1 POP DUP1 PUSH2 0x1AB9 JUMPI PUSH1 0x0 DUP1 REVERT JUMPDEST POP POP POP JUMP JUMPDEST PUSH1 0x0 PUSH2 0x1AC9 DUP3 PUSH2 0x2175 JUMP JUMPDEST DUP1 MLOAD SWAP1 PUSH1 0x20 ADD KECCAK256 SWAP1 POP SWAP2 SWAP1 POP JUMP JUMPDEST PUSH1 0xC0 DUP2 ADD MLOAD PUSH1 0xE0 DUP3 ADD MLOAD PUSH1 0x0 SWAP2 SWAP1 DUP1 DUP3 EQ ISZERO PUSH2 0x1AF4 JUMPI POP SWAP3 SWAP2 POP POP JUMP JUMPDEST PUSH2 0x1B00 DUP3 BASEFEE DUP4 ADD PUSH2 0x21B4 JUMP JUMPDEST SWAP5 SWAP4 POP POP POP POP JUMP JUMPDEST PUSH2 0x1B15 PUSH1 0x20 DUP4 ADD DUP4 PUSH2 0x27B9 JUMP JUMPDEST PUSH1 0x1 PUSH1 0x1 PUSH1 0xA0 SHL SUB AND DUP2 MSTORE PUSH1 0x20 DUP1 DUP4 ADD CALLDATALOAD SWAP1 DUP3 ADD MSTORE PUSH1 0x80 DUP1 DUP4 ADD CALLDATALOAD PUSH1 0x40 DUP4 ADD MSTORE PUSH1 0xA0 DUP4 ADD CALLDATALOAD PUSH1 0x60 DUP4 ADD MSTORE PUSH1 0xC0 DUP1 DUP5 ADD CALLDATALOAD SWAP2 DUP4 ADD SWAP2 SWAP1 SWAP2 MSTORE PUSH1 0xE0 DUP1 DUP5 ADD CALLDATALOAD SWAP2 DUP4 ADD SWAP2 SWAP1 SWAP2 MSTORE PUSH2 0x100 DUP4 ADD CALLDATALOAD SWAP1 DUP3 ADD MSTORE CALLDATASIZE PUSH1 0x0 PUSH2 0x1B74 PUSH2 0x120 DUP6 ADD DUP6 PUSH2 0x29C9 JUMP JUMPDEST SWAP1 SWAP3 POP SWAP1 POP DUP1 ISZERO PUSH2 0x1BF4 JUMPI PUSH1 0x14 DUP2 LT ISZERO PUSH2 0x1BD0 JUMPI PUSH1 0x40 MLOAD PUSH3 0x461BCD PUSH1 0xE5 SHL DUP2 MSTORE PUSH1 0x20 PUSH1 0x4 DUP3 ADD MSTORE PUSH1 0x18 PUSH1 0x24 DUP3 ADD MSTORE PUSH32 0x696E76616C6964207061796D6173746572416E64446174610000000000000000 PUSH1 0x44 DUP3 ADD MSTORE PUSH1 0x64 ADD PUSH2 0x478 JUMP JUMPDEST PUSH2 0x1BDE PUSH1 0x14 PUSH1 0x0 DUP4 DUP6 PUSH2 0x2E9F JUMP JUMPDEST PUSH2 0x1BE7 SWAP2 PUSH2 0x2EC9 JUMP JUMPDEST PUSH1 0x60 SHR PUSH1 0xA0 DUP5 ADD MSTORE PUSH2 0xA95 JUMP JUMPDEST PUSH1 0x0 PUSH1 0xA0 DUP5 ADD MSTORE POP POP POP POP JUMP JUMPDEST PUSH1 0xA0 DUP2 ADD MLOAD PUSH1 0x0 SWAP1 DUP2 SWAP1 PUSH1 0x1 PUSH1 0x1 PUSH1 0xA0 SHL SUB AND PUSH2 0x1C1F JUMPI PUSH1 0x1 PUSH2 0x1C22 JUMP JUMPDEST PUSH1 0x3 JUMPDEST PUSH1 0xFF AND SWAP1 POP PUSH1 0x0 DUP4 PUSH1 0x80 ADD MLOAD DUP3 DUP6 PUSH1 0x60 ADD MLOAD MUL DUP6 PUSH1 0x40 ADD MLOAD ADD ADD SWAP1 POP PUSH2 0x1C47 DUP5 PUSH2 0x1AD7 JUMP JUMPDEST MUL SWAP4 SWAP3 POP POP POP JUMP JUMPDEST PUSH1 0x0 DUP1 PUSH1 0x0 DUP1 GAS DUP8 MLOAD SWAP1 SWAP2 POP PUSH2 0x1C72 DUP11 DUP3 PUSH2 0x1C6D PUSH1 0x40 DUP14 ADD DUP14 PUSH2 0x29C9 JUMP JUMPDEST PUSH2 0x21CC JUMP JUMPDEST PUSH1 0x1 PUSH1 0x1 PUSH1 0xA0 SHL SUB DUP8 AND PUSH1 0x1 EQ ISZERO PUSH2 0x1CF8 JUMPI DUP1 PUSH1 0x0 ADD MLOAD PUSH1 0x1 PUSH1 0x1 PUSH1 0xA0 SHL SUB AND PUSH4 0x3AD59DBC PUSH1 0x40 MLOAD DUP2 PUSH4 0xFFFFFFFF AND PUSH1 0xE0 SHL DUP2 MSTORE PUSH1 0x4 ADD PUSH1 0x20 PUSH1 0x40 MLOAD DUP1 DUP4 SUB DUP2 DUP7 GAS STATICCALL SWAP3 POP POP POP DUP1 ISZERO PUSH2 0x1CE2 JUMPI POP PUSH1 0x40 DUP1 MLOAD PUSH1 0x1F RETURNDATASIZE SWAP1 DUP2 ADD PUSH1 0x1F NOT AND DUP3 ADD SWAP1 SWAP3 MSTORE PUSH2 0x1CDF SWAP2 DUP2 ADD SWAP1 PUSH2 0x2C05 JUMP JUMPDEST PUSH1 0x1 JUMPDEST PUSH2 0x1CF2 JUMPI PUSH1 0x0 SWAP4 POP DUP4 SWAP7 POP PUSH2 0x1CF8 JUMP JUMPDEST SWAP7 POP DUP7 SWAP4 POP JUMPDEST DUP1 MLOAD PUSH1 0xA0 DUP3 ADD MLOAD PUSH1 0x0 SWAP2 SWAP1 PUSH1 0x1 PUSH1 0x1 PUSH1 0xA0 SHL SUB DUP2 AND PUSH2 0x1D49 JUMPI PUSH1 0x1 PUSH1 0x1 PUSH1 0xA0 SHL SUB DUP3 AND PUSH1 0x0 SWAP1 DUP2 MSTORE PUSH1 0x20 DUP2 SWAP1 MSTORE PUSH1 0x40 SWAP1 KECCAK256 SLOAD PUSH1 0x1 PUSH1 0x1 PUSH1 0x70 SHL SUB AND DUP10 DUP2 GT PUSH2 0x1D42 JUMPI DUP1 DUP11 SUB PUSH2 0x1D45 JUMP JUMPDEST PUSH1 0x0 JUMPDEST SWAP4 POP POP JUMPDEST DUP2 PUSH1 0x1 PUSH1 0x1 PUSH1 0xA0 SHL SUB AND PUSH4 0x825D1FC DUP6 PUSH1 0x60 ADD MLOAD DUP15 DUP15 PUSH1 0x20 ADD MLOAD DUP15 DUP9 PUSH1 0x40 MLOAD DUP7 PUSH4 0xFFFFFFFF AND PUSH1 0xE0 SHL DUP2 MSTORE PUSH1 0x4 ADD PUSH2 0x1D84 SWAP5 SWAP4 SWAP3 SWAP2 SWAP1 PUSH2 0x2EF9 JUMP JUMPDEST PUSH1 0x20 PUSH1 0x40 MLOAD DUP1 DUP4 SUB DUP2 PUSH1 0x0 DUP9 DUP8 CALL SWAP4 POP POP POP POP DUP1 ISZERO PUSH2 0x1DC0 JUMPI POP PUSH1 0x40 DUP1 MLOAD PUSH1 0x1F RETURNDATASIZE SWAP1 DUP2 ADD PUSH1 0x1F NOT AND DUP3 ADD SWAP1 SWAP3 MSTORE PUSH2 0x1DBD SWAP2 DUP2 ADD SWAP1 PUSH2 0x2E86 JUMP JUMPDEST PUSH1 0x1 JUMPDEST PUSH2 0x1E3D JUMPI PUSH2 0x1DCC PUSH2 0x2D04 JUMP JUMPDEST DUP1 PUSH4 0x8C379A0 EQ ISZERO PUSH2 0x1E0B JUMPI POP PUSH2 0x1DE1 PUSH2 0x2D20 JUMP JUMPDEST DUP1 PUSH2 0x1DEC JUMPI POP PUSH2 0x1E0D JUMP JUMPDEST DUP14 PUSH1 0x0 DUP3 PUSH1 0x40 MLOAD PUSH3 0xFA072B PUSH1 0xE0 SHL DUP2 MSTORE PUSH1 0x4 ADD PUSH2 0x478 SWAP4 SWAP3 SWAP2 SWAP1 PUSH2 0x2DA9 JUMP JUMPDEST POP JUMPDEST PUSH1 0x40 MLOAD PUSH3 0xFA072B PUSH1 0xE0 SHL DUP2 MSTORE PUSH1 0x4 DUP2 ADD DUP15 SWAP1 MSTORE PUSH1 0x0 PUSH1 0x24 DUP3 ADD DUP2 SWAP1 MSTORE PUSH1 0x60 PUSH1 0x44 DUP4 ADD MSTORE PUSH1 0x64 DUP3 ADD MSTORE PUSH1 0x84 ADD PUSH2 0x478 JUMP JUMPDEST DUP1 ISZERO DUP1 ISZERO SWAP1 PUSH2 0x1E4B JUMPI POP TIMESTAMP DUP2 LT JUMPDEST ISZERO PUSH2 0x1E6D JUMPI DUP14 PUSH1 0x0 PUSH1 0x40 MLOAD PUSH3 0xFA072B PUSH1 0xE0 SHL DUP2 MSTORE PUSH1 0x4 ADD PUSH2 0x478 SWAP3 SWAP2 SWAP1 PUSH2 0x2F31 JUMP JUMPDEST SWAP6 POP PUSH1 0x1 PUSH1 0x1 PUSH1 0xA0 SHL SUB DUP2 AND PUSH2 0x1F29 JUMPI PUSH1 0x1 PUSH1 0x1 PUSH1 0xA0 SHL SUB DUP3 AND PUSH1 0x0 SWAP1 DUP2 MSTORE PUSH1 0x20 DUP2 SWAP1 MSTORE PUSH1 0x40 SWAP1 KECCAK256 DUP1 SLOAD PUSH1 0x1 PUSH1 0x1 PUSH1 0x70 SHL SUB AND DUP1 DUP12 GT ISZERO PUSH2 0x1F0C JUMPI DUP15 PUSH1 0x0 PUSH1 0x40 MLOAD PUSH3 0xFA072B PUSH1 0xE0 SHL DUP2 MSTORE PUSH1 0x4 ADD PUSH2 0x478 SWAP3 SWAP2 SWAP1 SWAP2 DUP3 MSTORE PUSH1 0x1 PUSH1 0x1 PUSH1 0xA0 SHL SUB AND PUSH1 0x20 DUP3 ADD MSTORE PUSH1 0x60 PUSH1 0x40 DUP3 ADD DUP2 SWAP1 MSTORE PUSH1 0x1A SWAP1 DUP3 ADD MSTORE PUSH32 0x6163636F756E74206469646E2774207061792070726566756E64000000000000 PUSH1 0x80 DUP3 ADD MSTORE PUSH1 0xA0 ADD SWAP1 JUMP JUMPDEST DUP2 SLOAD PUSH1 0x1 PUSH1 0x1 PUSH1 0x70 SHL SUB NOT AND SWAP1 DUP12 SWAP1 SUB PUSH1 0x1 PUSH1 0x1 PUSH1 0x70 SHL SUB AND OR SWAP1 SSTORE JUMPDEST GAS DUP6 SUB SWAP8 POP POP POP POP POP POP SWAP6 POP SWAP6 POP SWAP6 SWAP3 POP POP POP JUMP JUMPDEST DUP3 MLOAD PUSH1 0xA0 DUP2 ADD MLOAD PUSH1 0x1 PUSH1 0x1 PUSH1 0xA0 SHL SUB DUP2 AND PUSH1 0x0 SWAP1 DUP2 MSTORE PUSH1 0x20 DUP2 SWAP1 MSTORE PUSH1 0x40 DUP2 KECCAK256 DUP1 SLOAD PUSH1 0x60 SWAP5 SWAP3 SWAP4 SWAP2 SWAP1 PUSH1 0x1 PUSH1 0x1 PUSH1 0x70 SHL SUB DUP2 AND SWAP1 PUSH1 0x1 PUSH1 0x70 SHL SWAP1 DIV PUSH1 0xFF AND DUP1 PUSH2 0x1F9C JUMPI DUP12 DUP5 PUSH1 0x40 MLOAD PUSH3 0xFA072B PUSH1 0xE0 SHL DUP2 MSTORE PUSH1 0x4 ADD PUSH2 0x478 SWAP3 SWAP2 SWAP1 PUSH2 0x2F67 JUMP JUMPDEST DUP9 DUP3 LT ISZERO PUSH2 0x2002 JUMPI PUSH1 0x40 MLOAD PUSH3 0xFA072B PUSH1 0xE0 SHL DUP2 MSTORE PUSH1 0x4 DUP2 ADD DUP14 SWAP1 MSTORE PUSH1 0x1 PUSH1 0x1 PUSH1 0xA0 SHL SUB DUP6 AND PUSH1 0x24 DUP3 ADD MSTORE PUSH1 0x60 PUSH1 0x44 DUP3 ADD MSTORE PUSH1 0x19 PUSH1 0x64 DUP3 ADD MSTORE PUSH32 0x7061796D6173746572206465706F73697420746F6F206C6F7700000000000000 PUSH1 0x84 DUP3 ADD MSTORE PUSH1 0xA4 ADD PUSH2 0x478 JUMP JUMPDEST DUP9 DUP3 SUB DUP4 PUSH1 0x0 ADD PUSH1 0x0 PUSH2 0x100 EXP DUP2 SLOAD DUP2 PUSH1 0x1 PUSH1 0x1 PUSH1 0x70 SHL SUB MUL NOT AND SWAP1 DUP4 PUSH1 0x1 PUSH1 0x1 PUSH1 0x70 SHL SUB AND MUL OR SWAP1 SSTORE POP PUSH1 0x0 DUP9 DUP7 PUSH1 0x60 ADD MLOAD SUB SWAP1 POP DUP5 PUSH1 0x1 PUSH1 0x1 PUSH1 0xA0 SHL SUB AND PUSH4 0xF465C77E DUP3 DUP15 DUP15 PUSH1 0x20 ADD MLOAD DUP15 PUSH1 0x40 MLOAD DUP6 PUSH4 0xFFFFFFFF AND PUSH1 0xE0 SHL DUP2 MSTORE PUSH1 0x4 ADD PUSH2 0x206D SWAP4 SWAP3 SWAP2 SWAP1 PUSH2 0x2FA6 JUMP JUMPDEST PUSH1 0x0 PUSH1 0x40 MLOAD DUP1 DUP4 SUB DUP2 PUSH1 0x0 DUP9 DUP8 CALL SWAP4 POP POP POP POP DUP1 ISZERO PUSH2 0x20AE JUMPI POP PUSH1 0x40 MLOAD RETURNDATASIZE PUSH1 0x0 DUP3 RETURNDATACOPY PUSH1 0x1F RETURNDATASIZE SWAP1 DUP2 ADD PUSH1 0x1F NOT AND DUP3 ADD PUSH1 0x40 MSTORE PUSH2 0x20AB SWAP2 SWAP1 DUP2 ADD SWAP1 PUSH2 0x2FCB JUMP JUMPDEST PUSH1 0x1 JUMPDEST PUSH2 0x2132 JUMPI PUSH2 0x20BA PUSH2 0x2D04 JUMP JUMPDEST DUP1 PUSH4 0x8C379A0 EQ ISZERO PUSH2 0x20F8 JUMPI POP PUSH2 0x20CF PUSH2 0x2D20 JUMP JUMPDEST DUP1 PUSH2 0x20DA JUMPI POP PUSH2 0x20FA JUMP JUMPDEST DUP14 DUP7 DUP3 PUSH1 0x40 MLOAD PUSH3 0xFA072B PUSH1 0xE0 SHL DUP2 MSTORE PUSH1 0x4 ADD PUSH2 0x478 SWAP4 SWAP3 SWAP2 SWAP1 PUSH2 0x2DA9 JUMP JUMPDEST POP JUMPDEST PUSH1 0x40 MLOAD PUSH3 0xFA072B PUSH1 0xE0 SHL DUP2 MSTORE PUSH1 0x4 DUP2 ADD DUP15 SWAP1 MSTORE PUSH1 0x1 PUSH1 0x1 PUSH1 0xA0 SHL SUB DUP7 AND PUSH1 0x24 DUP3 ADD MSTORE PUSH1 0x60 PUSH1 0x44 DUP3 ADD MSTORE PUSH1 0x0 PUSH1 0x64 DUP3 ADD MSTORE PUSH1 0x84 ADD PUSH2 0x478 JUMP JUMPDEST DUP1 ISZERO DUP1 ISZERO SWAP1 PUSH2 0x2140 JUMPI POP TIMESTAMP DUP2 LT JUMPDEST ISZERO PUSH2 0x2161 JUMPI DUP15 DUP8 PUSH1 0x40 MLOAD PUSH3 0xFA072B PUSH1 0xE0 SHL DUP2 MSTORE PUSH1 0x4 ADD PUSH2 0x478 SWAP3 SWAP2 SWAP1 PUSH2 0x2F31 JUMP JUMPDEST SWAP1 SWAP15 SWAP1 SWAP14 POP SWAP12 POP POP POP POP POP POP POP POP POP POP POP POP JUMP JUMPDEST PUSH1 0x60 CALLDATASIZE PUSH1 0x0 PUSH2 0x2188 PUSH2 0x140 DUP6 ADD DUP6 PUSH2 0x29C9 JUMP JUMPDEST SWAP2 POP SWAP2 POP DUP4 PUSH1 0x20 DUP2 DUP5 SUB SUB PUSH1 0x40 MLOAD SWAP5 POP PUSH1 0x20 DUP2 ADD DUP6 ADD PUSH1 0x40 MSTORE DUP1 DUP6 MSTORE DUP1 DUP3 PUSH1 0x20 DUP8 ADD CALLDATACOPY POP POP POP POP SWAP2 SWAP1 POP JUMP JUMPDEST PUSH1 0x0 DUP2 DUP4 LT PUSH2 0x21C3 JUMPI DUP2 PUSH2 0x21C5 JUMP JUMPDEST DUP3 JUMPDEST SWAP4 SWAP3 POP POP POP JUMP JUMPDEST DUP1 ISZERO PUSH2 0xA95 JUMPI DUP3 MLOAD PUSH1 0x1 PUSH1 0x1 PUSH1 0xA0 SHL SUB AND EXTCODESIZE ISZERO PUSH2 0x2239 JUMPI PUSH1 0x40 MLOAD PUSH3 0xFA072B PUSH1 0xE0 SHL DUP2 MSTORE PUSH1 0x4 DUP2 ADD DUP6 SWAP1 MSTORE PUSH1 0x0 PUSH1 0x24 DUP3 ADD MSTORE PUSH1 0x60 PUSH1 0x44 DUP3 ADD MSTORE PUSH1 0x1A PUSH1 0x64 DUP3 ADD MSTORE PUSH32 0x73656E64657220616C726561647920636F6E7374727563746564000000000000 PUSH1 0x84 DUP3 ADD MSTORE PUSH1 0xA4 ADD PUSH2 0x478 JUMP JUMPDEST PUSH1 0x40 MLOAD PUSH4 0x2B870D1B PUSH1 0xE1 SHL DUP2 MSTORE PUSH1 0x0 SWAP1 PUSH1 0x1 PUSH1 0x1 PUSH1 0xA0 SHL SUB PUSH32 0x0 AND SWAP1 PUSH4 0x570E1A36 SWAP1 PUSH2 0x228A SWAP1 DUP7 SWAP1 DUP7 SWAP1 PUSH1 0x4 ADD PUSH2 0x2BF1 JUMP JUMPDEST PUSH1 0x20 PUSH1 0x40 MLOAD DUP1 DUP4 SUB DUP2 PUSH1 0x0 DUP8 GAS CALL ISZERO DUP1 ISZERO PUSH2 0x22A9 JUMPI RETURNDATASIZE PUSH1 0x0 DUP1 RETURNDATACOPY RETURNDATASIZE PUSH1 0x0 REVERT JUMPDEST POP POP POP POP PUSH1 0x40 MLOAD RETURNDATASIZE PUSH1 0x1F NOT PUSH1 0x1F DUP3 ADD AND DUP3 ADD DUP1 PUSH1 0x40 MSTORE POP DUP2 ADD SWAP1 PUSH2 0x22CD SWAP2 SWAP1 PUSH2 0x2C05 JUMP JUMPDEST SWAP1 POP PUSH1 0x1 PUSH1 0x1 PUSH1 0xA0 SHL SUB DUP2 AND PUSH2 0x2325 JUMPI PUSH1 0x40 MLOAD PUSH3 0xFA072B PUSH1 0xE0 SHL DUP2 MSTORE PUSH1 0x4 DUP2 ADD DUP7 SWAP1 MSTORE PUSH1 0x0 PUSH1 0x24 DUP3 ADD MSTORE PUSH1 0x60 PUSH1 0x44 DUP3 ADD MSTORE PUSH1 0xF PUSH1 0x64 DUP3 ADD MSTORE PUSH15 0x1A5B9A5D10DBD9194819985A5B1959 PUSH1 0x8A SHL PUSH1 0x84 DUP3 ADD MSTORE PUSH1 0xA4 ADD PUSH2 0x478 JUMP JUMPDEST DUP4 MLOAD PUSH1 0x1 PUSH1 0x1 PUSH1 0xA0 SHL SUB DUP3 DUP2 AND SWAP2 AND EQ PUSH2 0x239D JUMPI PUSH1 0x40 MLOAD PUSH3 0xFA072B PUSH1 0xE0 SHL DUP2 MSTORE PUSH1 0x4 DUP2 ADD DUP7 SWAP1 MSTORE PUSH1 0x0 PUSH1 0x24 DUP3 ADD MSTORE PUSH1 0x60 PUSH1 0x44 DUP3 ADD MSTORE PUSH1 0x25 PUSH1 0x64 DUP3 ADD MSTORE PUSH32 0x73656E64657220646F65736E2774206D6174636820696E6974436F6465206164 PUSH1 0x84 DUP3 ADD MSTORE PUSH5 0x6472657373 PUSH1 0xD8 SHL PUSH1 0xA4 DUP3 ADD MSTORE PUSH1 0xC4 ADD PUSH2 0x478 JUMP JUMPDEST PUSH1 0x1 PUSH1 0x1 PUSH1 0xA0 SHL SUB DUP2 AND EXTCODESIZE PUSH2 0x2402 JUMPI PUSH1 0x40 MLOAD PUSH3 0xFA072B PUSH1 0xE0 SHL DUP2 MSTORE PUSH1 0x4 DUP2 ADD DUP7 SWAP1 MSTORE PUSH1 0x0 PUSH1 0x24 DUP3 ADD MSTORE PUSH1 0x60 PUSH1 0x44 DUP3 ADD MSTORE PUSH1 0x20 PUSH1 0x64 DUP3 ADD MSTORE PUSH32 0x696E6974436F6465206661696C656420746F206372656174652073656E646572 PUSH1 0x84 DUP3 ADD MSTORE PUSH1 0xA4 ADD PUSH2 0x478 JUMP JUMPDEST POP POP POP POP POP JUMP JUMPDEST PUSH1 0x40 MLOAD DUP1 PUSH1 0xA0 ADD PUSH1 0x40 MSTORE DUP1 PUSH2 0x246E PUSH1 0x40 MLOAD DUP1 PUSH2 0x100 ADD PUSH1 0x40 MSTORE DUP1 PUSH1 0x0 PUSH1 0x1 PUSH1 0x1 PUSH1 0xA0 SHL SUB AND DUP2 MSTORE PUSH1 0x20 ADD PUSH1 0x0 DUP2 MSTORE PUSH1 0x20 ADD PUSH1 0x0 DUP2 MSTORE PUSH1 0x20 ADD PUSH1 0x0 DUP2 MSTORE PUSH1 0x20 ADD PUSH1 0x0 DUP2 MSTORE PUSH1 0x20 ADD PUSH1 0x0 PUSH1 0x1 PUSH1 0x1 PUSH1 0xA0 SHL SUB AND DUP2 MSTORE PUSH1 0x20 ADD PUSH1 0x0 DUP2 MSTORE PUSH1 0x20 ADD PUSH1 0x0 DUP2 MSTORE POP SWAP1 JUMP JUMPDEST DUP2 MSTORE PUSH1 0x20 ADD PUSH1 0x0 DUP1 NOT AND DUP2 MSTORE PUSH1 0x20 ADD PUSH1 0x0 DUP2 MSTORE PUSH1 0x20 ADD PUSH1 0x0 DUP2 MSTORE PUSH1 0x20 ADD PUSH1 0x0 DUP2 MSTORE POP SWAP1 JUMP JUMPDEST PUSH1 0x0 PUSH1 0x20 DUP3 DUP5 SUB SLT ISZERO PUSH2 0x24A5 JUMPI PUSH1 0x0 DUP1 REVERT JUMPDEST DUP2 CALLDATALOAD PUSH4 0xFFFFFFFF DUP2 AND DUP2 EQ PUSH2 0x21C5 JUMPI PUSH1 0x0 DUP1 REVERT JUMPDEST PUSH1 0x0 DUP1 DUP4 PUSH1 0x1F DUP5 ADD SLT PUSH2 0x24CB JUMPI PUSH1 0x0 DUP1 REVERT JUMPDEST POP DUP2 CALLDATALOAD PUSH1 0x1 PUSH1 0x1 PUSH1 0x40 SHL SUB DUP2 GT ISZERO PUSH2 0x24E2 JUMPI PUSH1 0x0 DUP1 REVERT JUMPDEST PUSH1 0x20 DUP4 ADD SWAP2 POP DUP4 PUSH1 0x20 DUP3 DUP6 ADD ADD GT ISZERO PUSH2 0x24FA JUMPI PUSH1 0x0 DUP1 REVERT JUMPDEST SWAP3 POP SWAP3 SWAP1 POP JUMP JUMPDEST PUSH4 0x4E487B71 PUSH1 0xE0 SHL PUSH1 0x0 MSTORE PUSH1 0x41 PUSH1 0x4 MSTORE PUSH1 0x24 PUSH1 0x0 REVERT JUMPDEST PUSH1 0xA0 DUP2 ADD DUP2 DUP2 LT PUSH1 0x1 PUSH1 0x1 PUSH1 0x40 SHL SUB DUP3 GT OR ISZERO PUSH2 0x2536 JUMPI PUSH2 0x2536 PUSH2 0x2501 JUMP JUMPDEST PUSH1 0x40 MSTORE POP JUMP JUMPDEST PUSH2 0x100 DUP2 ADD DUP2 DUP2 LT PUSH1 0x1 PUSH1 0x1 PUSH1 0x40 SHL SUB DUP3 GT OR ISZERO PUSH2 0x2536 JUMPI PUSH2 0x2536 PUSH2 0x2501 JUMP JUMPDEST PUSH1 0x1F DUP3 ADD PUSH1 0x1F NOT AND DUP2 ADD PUSH1 0x1 PUSH1 0x1 PUSH1 0x40 SHL SUB DUP2 GT DUP3 DUP3 LT OR ISZERO PUSH2 0x2581 JUMPI PUSH2 0x2581 PUSH2 0x2501 JUMP JUMPDEST PUSH1 0x40 MSTORE POP POP JUMP JUMPDEST PUSH1 0x1 PUSH1 0x1 PUSH1 0xA0 SHL SUB DUP2 AND DUP2 EQ PUSH2 0x259D JUMPI PUSH1 0x0 DUP1 REVERT JUMPDEST POP JUMP JUMPDEST DUP1 CALLDATALOAD PUSH2 0x25AB DUP2 PUSH2 0x2588 JUMP JUMPDEST SWAP2 SWAP1 POP JUMP JUMPDEST PUSH1 0x0 DUP1 PUSH1 0x0 DUP1 PUSH1 0x0 DUP6 DUP8 SUB PUSH2 0x1C0 DUP2 SLT ISZERO PUSH2 0x25CA JUMPI PUSH1 0x0 DUP1 REVERT JUMPDEST DUP7 CALLDATALOAD PUSH1 0x1 PUSH1 0x1 PUSH1 0x40 SHL SUB DUP1 DUP3 GT ISZERO PUSH2 0x25E1 JUMPI PUSH1 0x0 DUP1 REVERT JUMPDEST PUSH2 0x25ED DUP11 DUP4 DUP12 ADD PUSH2 0x24B9 JUMP JUMPDEST SWAP1 SWAP9 POP SWAP7 POP PUSH1 0x1F NOT SWAP3 SWAP1 SWAP3 ADD SWAP2 PUSH2 0x180 SWAP2 POP DUP2 DUP4 SLT ISZERO PUSH2 0x260C JUMPI PUSH1 0x0 DUP1 REVERT JUMPDEST PUSH1 0x40 MLOAD PUSH2 0x2618 DUP2 PUSH2 0x2517 JUMP JUMPDEST PUSH2 0x100 DUP1 DUP6 SLT ISZERO PUSH2 0x2628 JUMPI PUSH1 0x0 DUP1 REVERT JUMPDEST PUSH1 0x40 MLOAD SWAP5 POP PUSH2 0x2636 DUP6 PUSH2 0x253C JUMP JUMPDEST PUSH2 0x2642 PUSH1 0x20 DUP13 ADD PUSH2 0x25A0 JUMP JUMPDEST DUP6 MSTORE PUSH1 0x40 DUP12 ADD CALLDATALOAD PUSH1 0x20 DUP7 ADD MSTORE PUSH1 0x60 DUP12 ADD CALLDATALOAD PUSH1 0x40 DUP7 ADD MSTORE PUSH1 0x80 DUP12 ADD CALLDATALOAD PUSH1 0x60 DUP7 ADD MSTORE PUSH1 0xA0 DUP12 ADD CALLDATALOAD PUSH1 0x80 DUP7 ADD MSTORE PUSH2 0x2678 PUSH1 0xC0 DUP13 ADD PUSH2 0x25A0 JUMP JUMPDEST PUSH1 0xA0 DUP7 ADD MSTORE PUSH1 0xE0 DUP12 DUP2 ADD CALLDATALOAD PUSH1 0xC0 DUP8 ADD MSTORE SWAP1 DUP12 ADD CALLDATALOAD SWAP1 DUP6 ADD MSTORE SWAP3 DUP4 MSTORE PUSH2 0x120 DUP10 ADD CALLDATALOAD PUSH1 0x20 DUP5 ADD MSTORE PUSH2 0x140 DUP10 ADD CALLDATALOAD PUSH1 0x40 DUP5 ADD MSTORE PUSH2 0x160 DUP10 ADD CALLDATALOAD PUSH1 0x60 DUP5 ADD MSTORE DUP2 DUP10 ADD CALLDATALOAD PUSH1 0x80 DUP5 ADD MSTORE SWAP2 SWAP5 POP PUSH2 0x1A0 DUP9 ADD CALLDATALOAD SWAP2 DUP1 DUP4 GT ISZERO PUSH2 0x26D4 JUMPI PUSH1 0x0 DUP1 REVERT JUMPDEST POP POP PUSH2 0x26E2 DUP9 DUP3 DUP10 ADD PUSH2 0x24B9 JUMP JUMPDEST SWAP7 SWAP10 SWAP6 SWAP9 POP SWAP4 SWAP7 POP SWAP3 SWAP5 SWAP4 SWAP3 POP POP POP JUMP JUMPDEST PUSH1 0x0 DUP1 DUP4 PUSH1 0x1F DUP5 ADD SLT PUSH2 0x2705 JUMPI PUSH1 0x0 DUP1 REVERT JUMPDEST POP DUP2 CALLDATALOAD PUSH1 0x1 PUSH1 0x1 PUSH1 0x40 SHL SUB DUP2 GT ISZERO PUSH2 0x271C JUMPI PUSH1 0x0 DUP1 REVERT JUMPDEST PUSH1 0x20 DUP4 ADD SWAP2 POP DUP4 PUSH1 0x20 DUP3 PUSH1 0x5 SHL DUP6 ADD ADD GT ISZERO PUSH2 0x24FA JUMPI PUSH1 0x0 DUP1 REVERT JUMPDEST PUSH1 0x0 DUP1 PUSH1 0x0 PUSH1 0x40 DUP5 DUP7 SUB SLT ISZERO PUSH2 0x274C JUMPI PUSH1 0x0 DUP1 REVERT JUMPDEST DUP4 CALLDATALOAD PUSH1 0x1 PUSH1 0x1 PUSH1 0x40 SHL SUB DUP2 GT ISZERO PUSH2 0x2762 JUMPI PUSH1 0x0 DUP1 REVERT JUMPDEST PUSH2 0x276E DUP7 DUP3 DUP8 ADD PUSH2 0x26F3 JUMP JUMPDEST SWAP1 SWAP5 POP SWAP3 POP POP PUSH1 0x20 DUP5 ADD CALLDATALOAD PUSH2 0x2782 DUP2 PUSH2 0x2588 JUMP JUMPDEST DUP1 SWAP2 POP POP SWAP3 POP SWAP3 POP SWAP3 JUMP JUMPDEST PUSH1 0x0 DUP1 PUSH1 0x40 DUP4 DUP6 SUB SLT ISZERO PUSH2 0x27A0 JUMPI PUSH1 0x0 DUP1 REVERT JUMPDEST DUP3 CALLDATALOAD PUSH2 0x27AB DUP2 PUSH2 0x2588 JUMP JUMPDEST SWAP5 PUSH1 0x20 SWAP4 SWAP1 SWAP4 ADD CALLDATALOAD SWAP4 POP POP POP JUMP JUMPDEST PUSH1 0x0 PUSH1 0x20 DUP3 DUP5 SUB SLT ISZERO PUSH2 0x27CB JUMPI PUSH1 0x0 DUP1 REVERT JUMPDEST DUP2 CALLDATALOAD PUSH2 0x21C5 DUP2 PUSH2 0x2588 JUMP JUMPDEST PUSH1 0x0 DUP1 PUSH1 0x20 DUP4 DUP6 SUB SLT ISZERO PUSH2 0x27E9 JUMPI PUSH1 0x0 DUP1 REVERT JUMPDEST DUP3 CALLDATALOAD PUSH1 0x1 PUSH1 0x1 PUSH1 0x40 SHL SUB DUP2 GT ISZERO PUSH2 0x27FF JUMPI PUSH1 0x0 DUP1 REVERT JUMPDEST PUSH2 0x280B DUP6 DUP3 DUP7 ADD PUSH2 0x24B9 JUMP JUMPDEST SWAP1 SWAP7 SWAP1 SWAP6 POP SWAP4 POP POP POP POP JUMP JUMPDEST PUSH1 0x0 PUSH1 0x20 DUP3 DUP5 SUB SLT ISZERO PUSH2 0x2829 JUMPI PUSH1 0x0 DUP1 REVERT JUMPDEST DUP2 CALLDATALOAD PUSH1 0x1 PUSH1 0x1 PUSH1 0x40 SHL SUB DUP2 GT ISZERO PUSH2 0x283F JUMPI PUSH1 0x0 DUP1 REVERT JUMPDEST DUP3 ADD PUSH2 0x160 DUP2 DUP6 SUB SLT ISZERO PUSH2 0x21C5 JUMPI PUSH1 0x0 DUP1 REVERT JUMPDEST PUSH4 0x4E487B71 PUSH1 0xE0 SHL PUSH1 0x0 MSTORE PUSH1 0x11 PUSH1 0x4 MSTORE PUSH1 0x24 PUSH1 0x0 REVERT JUMPDEST PUSH1 0x0 DUP3 NOT DUP3 GT ISZERO PUSH2 0x287B JUMPI PUSH2 0x287B PUSH2 0x2852 JUMP JUMPDEST POP ADD SWAP1 JUMP JUMPDEST DUP2 DUP4 DUP3 CALLDATACOPY PUSH1 0x0 SWAP2 ADD SWAP1 DUP2 MSTORE SWAP2 SWAP1 POP JUMP JUMPDEST PUSH1 0x0 JUMPDEST DUP4 DUP2 LT ISZERO PUSH2 0x28AB JUMPI DUP2 DUP2 ADD MLOAD DUP4 DUP3 ADD MSTORE PUSH1 0x20 ADD PUSH2 0x2893 JUMP JUMPDEST DUP4 DUP2 GT ISZERO PUSH2 0xA95 JUMPI POP POP PUSH1 0x0 SWAP2 ADD MSTORE JUMP JUMPDEST PUSH1 0x0 DUP2 MLOAD DUP1 DUP5 MSTORE PUSH2 0x28D4 DUP2 PUSH1 0x20 DUP7 ADD PUSH1 0x20 DUP7 ADD PUSH2 0x2890 JUMP JUMPDEST PUSH1 0x1F ADD PUSH1 0x1F NOT AND SWAP3 SWAP1 SWAP3 ADD PUSH1 0x20 ADD SWAP3 SWAP2 POP POP JUMP JUMPDEST DUP3 DUP2 MSTORE PUSH1 0x40 PUSH1 0x20 DUP3 ADD MSTORE PUSH1 0x0 PUSH2 0x1B00 PUSH1 0x40 DUP4 ADD DUP5 PUSH2 0x28BC JUMP JUMPDEST PUSH4 0x4E487B71 PUSH1 0xE0 SHL PUSH1 0x0 MSTORE PUSH1 0x32 PUSH1 0x4 MSTORE PUSH1 0x24 PUSH1 0x0 REVERT JUMPDEST PUSH1 0x0 DUP3 CALLDATALOAD PUSH2 0x15E NOT DUP4 CALLDATASIZE SUB ADD DUP2 SLT PUSH2 0x292E JUMPI PUSH1 0x0 DUP1 REVERT JUMPDEST SWAP2 SWAP1 SWAP2 ADD SWAP3 SWAP2 POP POP JUMP JUMPDEST PUSH1 0x0 DUP3 DUP3 LT ISZERO PUSH2 0x294A JUMPI PUSH2 0x294A PUSH2 0x2852 JUMP JUMPDEST POP SUB SWAP1 JUMP JUMPDEST PUSH1 0x0 DUP3 CALLDATALOAD PUSH1 0x5E NOT DUP4 CALLDATASIZE SUB ADD DUP2 SLT PUSH2 0x292E JUMPI PUSH1 0x0 DUP1 REVERT JUMPDEST PUSH1 0x0 DUP1 DUP4 CALLDATALOAD PUSH1 0x1E NOT DUP5 CALLDATASIZE SUB ADD DUP2 SLT PUSH2 0x297C JUMPI PUSH1 0x0 DUP1 REVERT JUMPDEST DUP4 ADD DUP1 CALLDATALOAD SWAP2 POP PUSH1 0x1 PUSH1 0x1 PUSH1 0x40 SHL SUB DUP3 GT ISZERO PUSH2 0x2996 JUMPI PUSH1 0x0 DUP1 REVERT JUMPDEST PUSH1 0x20 ADD SWAP2 POP PUSH1 0x5 DUP2 SWAP1 SHL CALLDATASIZE SUB DUP3 SGT ISZERO PUSH2 0x24FA JUMPI PUSH1 0x0 DUP1 REVERT JUMPDEST PUSH1 0x0 PUSH1 0x0 NOT DUP3 EQ ISZERO PUSH2 0x29C2 JUMPI PUSH2 0x29C2 PUSH2 0x2852 JUMP JUMPDEST POP PUSH1 0x1 ADD SWAP1 JUMP JUMPDEST PUSH1 0x0 DUP1 DUP4 CALLDATALOAD PUSH1 0x1E NOT DUP5 CALLDATASIZE SUB ADD DUP2 SLT PUSH2 0x29E0 JUMPI PUSH1 0x0 DUP1 REVERT JUMPDEST DUP4 ADD DUP1 CALLDATALOAD SWAP2 POP PUSH1 0x1 PUSH1 0x1 PUSH1 0x40 SHL SUB DUP3 GT ISZERO PUSH2 0x29FA JUMPI PUSH1 0x0 DUP1 REVERT JUMPDEST PUSH1 0x20 ADD SWAP2 POP CALLDATASIZE DUP2 SWAP1 SUB DUP3 SGT ISZERO PUSH2 0x24FA JUMPI PUSH1 0x0 DUP1 REVERT JUMPDEST PUSH1 0x0 DUP1 DUP4 CALLDATALOAD PUSH1 0x1E NOT DUP5 CALLDATASIZE SUB ADD DUP2 SLT PUSH2 0x2A26 JUMPI PUSH1 0x0 DUP1 REVERT JUMPDEST DUP4 ADD PUSH1 0x20 DUP2 ADD SWAP3 POP CALLDATALOAD SWAP1 POP PUSH1 0x1 PUSH1 0x1 PUSH1 0x40 SHL SUB DUP2 GT ISZERO PUSH2 0x2A45 JUMPI PUSH1 0x0 DUP1 REVERT JUMPDEST DUP1 CALLDATASIZE SUB DUP4 SGT ISZERO PUSH2 0x24FA JUMPI PUSH1 0x0 DUP1 REVERT JUMPDEST DUP2 DUP4 MSTORE DUP2 DUP2 PUSH1 0x20 DUP6 ADD CALLDATACOPY POP PUSH1 0x0 DUP3 DUP3 ADD PUSH1 0x20 SWAP1 DUP2 ADD SWAP2 SWAP1 SWAP2 MSTORE PUSH1 0x1F SWAP1 SWAP2 ADD PUSH1 0x1F NOT AND SWAP1 SWAP2 ADD ADD SWAP1 JUMP JUMPDEST PUSH1 0x0 PUSH2 0x160 PUSH2 0x2A9C DUP5 PUSH2 0x2A8F DUP6 PUSH2 0x25A0 JUMP JUMPDEST PUSH1 0x1 PUSH1 0x1 PUSH1 0xA0 SHL SUB AND SWAP1 MSTORE JUMP JUMPDEST PUSH1 0x20 DUP4 ADD CALLDATALOAD PUSH1 0x20 DUP6 ADD MSTORE PUSH2 0x2AB3 PUSH1 0x40 DUP5 ADD DUP5 PUSH2 0x2A0F JUMP JUMPDEST DUP3 PUSH1 0x40 DUP8 ADD MSTORE PUSH2 0x2AC6 DUP4 DUP8 ADD DUP3 DUP5 PUSH2 0x2A54 JUMP JUMPDEST SWAP3 POP POP POP PUSH2 0x2AD7 PUSH1 0x60 DUP5 ADD DUP5 PUSH2 0x2A0F JUMP JUMPDEST DUP6 DUP4 SUB PUSH1 0x60 DUP8 ADD MSTORE PUSH2 0x2AEA DUP4 DUP3 DUP5 PUSH2 0x2A54 JUMP JUMPDEST SWAP3 POP POP POP PUSH1 0x80 DUP4 ADD CALLDATALOAD PUSH1 0x80 DUP6 ADD MSTORE PUSH1 0xA0 DUP4 ADD CALLDATALOAD PUSH1 0xA0 DUP6 ADD MSTORE PUSH1 0xC0 DUP4 ADD CALLDATALOAD PUSH1 0xC0 DUP6 ADD MSTORE PUSH1 0xE0 DUP4 ADD CALLDATALOAD PUSH1 0xE0 DUP6 ADD MSTORE PUSH2 0x100 DUP1 DUP5 ADD CALLDATALOAD DUP2 DUP7 ADD MSTORE POP PUSH2 0x120 PUSH2 0x2B31 DUP2 DUP6 ADD DUP6 PUSH2 0x2A0F JUMP JUMPDEST DUP7 DUP5 SUB DUP4 DUP9 ADD MSTORE PUSH2 0x2B43 DUP5 DUP3 DUP5 PUSH2 0x2A54 JUMP JUMPDEST SWAP4 POP POP POP POP PUSH2 0x140 PUSH2 0x2B57 DUP2 DUP6 ADD DUP6 PUSH2 0x2A0F JUMP JUMPDEST DUP7 DUP5 SUB DUP4 DUP9 ADD MSTORE PUSH2 0x2B69 DUP5 DUP3 DUP5 PUSH2 0x2A54 JUMP JUMPDEST SWAP8 SWAP7 POP POP POP POP POP POP POP JUMP JUMPDEST PUSH1 0x40 DUP1 DUP3 MSTORE DUP2 ADD DUP5 SWAP1 MSTORE PUSH1 0x0 PUSH1 0x60 PUSH1 0x5 DUP7 SWAP1 SHL DUP4 ADD DUP2 ADD SWAP1 DUP4 ADD DUP8 DUP4 DUP1 JUMPDEST DUP10 DUP2 LT ISZERO PUSH2 0x2BDA JUMPI DUP7 DUP6 SUB PUSH1 0x5F NOT ADD DUP5 MSTORE DUP3 CALLDATALOAD CALLDATASIZE DUP13 SWAP1 SUB PUSH2 0x15E NOT ADD DUP2 SLT PUSH2 0x2BB8 JUMPI DUP3 DUP4 REVERT JUMPDEST PUSH2 0x2BC4 DUP7 DUP14 DUP4 ADD PUSH2 0x2A7D JUMP JUMPDEST SWAP6 POP POP PUSH1 0x20 SWAP4 DUP5 ADD SWAP4 SWAP3 SWAP1 SWAP3 ADD SWAP2 PUSH1 0x1 ADD PUSH2 0x2B92 JUMP JUMPDEST POP POP POP POP DUP3 DUP2 SUB PUSH1 0x20 DUP5 ADD MSTORE PUSH2 0x2B69 DUP2 DUP6 DUP8 PUSH2 0x2A54 JUMP JUMPDEST PUSH1 0x20 DUP2 MSTORE PUSH1 0x0 PUSH2 0x1B00 PUSH1 0x20 DUP4 ADD DUP5 DUP7 PUSH2 0x2A54 JUMP JUMPDEST PUSH1 0x0 PUSH1 0x20 DUP3 DUP5 SUB SLT ISZERO PUSH2 0x2C17 JUMPI PUSH1 0x0 DUP1 REVERT JUMPDEST DUP2 MLOAD PUSH2 0x21C5 DUP2 PUSH2 0x2588 JUMP JUMPDEST PUSH1 0x20 DUP2 MSTORE PUSH1 0x0 PUSH2 0x2C4C PUSH1 0x20 DUP4 ADD PUSH1 0xA DUP2 MSTORE PUSH10 0x1B9BDD081CDD185AD959 PUSH1 0xB2 SHL PUSH1 0x20 DUP3 ADD MSTORE PUSH1 0x40 ADD SWAP1 JUMP JUMPDEST SWAP3 SWAP2 POP POP JUMP JUMPDEST PUSH1 0x0 PUSH1 0x1 PUSH1 0x1 PUSH1 0x40 SHL SUB DUP1 DUP4 AND DUP2 DUP6 AND DUP1 DUP4 SUB DUP3 GT ISZERO PUSH2 0x2C74 JUMPI PUSH2 0x2C74 PUSH2 0x2852 JUMP JUMPDEST ADD SWAP5 SWAP4 POP POP POP POP JUMP JUMPDEST DUP5 DUP2 MSTORE PUSH1 0x20 DUP1 DUP3 ADD DUP6 SWAP1 MSTORE PUSH1 0x40 DUP3 ADD DUP5 SWAP1 MSTORE DUP3 MLOAD PUSH1 0x60 DUP4 ADD MSTORE DUP3 ADD MLOAD PUSH1 0x80 DUP3 ADD MSTORE PUSH1 0xA0 DUP2 ADD PUSH2 0x7EE JUMP JUMPDEST PUSH4 0x4E487B71 PUSH1 0xE0 SHL PUSH1 0x0 MSTORE PUSH1 0x21 PUSH1 0x4 MSTORE PUSH1 0x24 PUSH1 0x0 REVERT JUMPDEST PUSH1 0x0 PUSH1 0x3 DUP6 LT PUSH2 0x2CDD JUMPI PUSH4 0x4E487B71 PUSH1 0xE0 SHL PUSH1 0x0 MSTORE PUSH1 0x21 PUSH1 0x4 MSTORE PUSH1 0x24 PUSH1 0x0 REVERT JUMPDEST DUP5 DUP3 MSTORE PUSH1 0x60 PUSH1 0x20 DUP4 ADD MSTORE PUSH2 0x2CF4 PUSH1 0x60 DUP4 ADD DUP6 PUSH2 0x28BC JUMP JUMPDEST SWAP1 POP DUP3 PUSH1 0x40 DUP4 ADD MSTORE SWAP5 SWAP4 POP POP POP POP JUMP JUMPDEST PUSH1 0x0 PUSH1 0x3 RETURNDATASIZE GT ISZERO PUSH2 0x2D1D JUMPI PUSH1 0x4 PUSH1 0x0 DUP1 RETURNDATACOPY POP PUSH1 0x0 MLOAD PUSH1 0xE0 SHR JUMPDEST SWAP1 JUMP JUMPDEST PUSH1 0x0 PUSH1 0x44 RETURNDATASIZE LT ISZERO PUSH2 0x2D2E JUMPI SWAP1 JUMP JUMPDEST PUSH1 0x40 MLOAD PUSH1 0x3 NOT RETURNDATASIZE DUP2 ADD PUSH1 0x4 DUP4 RETURNDATACOPY DUP2 MLOAD RETURNDATASIZE PUSH1 0x1 PUSH1 0x1 PUSH1 0x40 SHL SUB DUP2 PUSH1 0x24 DUP5 ADD GT DUP2 DUP5 GT OR ISZERO PUSH2 0x2D5D JUMPI POP POP POP POP POP SWAP1 JUMP JUMPDEST DUP3 DUP6 ADD SWAP2 POP DUP2 MLOAD DUP2 DUP2 GT ISZERO PUSH2 0x2D75 JUMPI POP POP POP POP POP POP SWAP1 JUMP JUMPDEST DUP5 RETURNDATASIZE DUP8 ADD ADD PUSH1 0x20 DUP3 DUP6 ADD ADD GT ISZERO PUSH2 0x2D8F JUMPI POP POP POP POP POP POP SWAP1 JUMP JUMPDEST PUSH2 0x2D9E PUSH1 0x20 DUP3 DUP7 ADD ADD DUP8 PUSH2 0x255C JUMP JUMPDEST POP SWAP1 SWAP6 SWAP5 POP POP POP POP POP JUMP JUMPDEST DUP4 DUP2 MSTORE PUSH1 0x1 PUSH1 0x1 PUSH1 0xA0 SHL SUB DUP4 AND PUSH1 0x20 DUP3 ADD MSTORE PUSH1 0x60 PUSH1 0x40 DUP3 ADD DUP2 SWAP1 MSTORE PUSH1 0x0 SWAP1 PUSH2 0x7EE SWAP1 DUP4 ADD DUP5 PUSH2 0x28BC JUMP JUMPDEST PUSH1 0x0 PUSH2 0x1C0 DUP1 DUP4 MSTORE PUSH2 0x2DE8 DUP2 DUP5 ADD DUP8 DUP10 PUSH2 0x2A54 JUMP JUMPDEST SWAP1 POP DUP5 MLOAD PUSH1 0x1 DUP1 PUSH1 0xA0 SHL SUB DUP1 DUP3 MLOAD AND PUSH1 0x20 DUP7 ADD MSTORE PUSH1 0x20 DUP3 ADD MLOAD PUSH1 0x40 DUP7 ADD MSTORE PUSH1 0x40 DUP3 ADD MLOAD PUSH1 0x60 DUP7 ADD MSTORE PUSH1 0x60 DUP3 ADD MLOAD PUSH1 0x80 DUP7 ADD MSTORE PUSH1 0x80 DUP3 ADD MLOAD PUSH1 0xA0 DUP7 ADD MSTORE DUP1 PUSH1 0xA0 DUP4 ADD MLOAD AND PUSH1 0xC0 DUP7 ADD MSTORE POP PUSH1 0xC0 DUP2 ADD MLOAD PUSH1 0xE0 DUP6 ADD MSTORE PUSH1 0xE0 DUP2 ADD MLOAD PUSH2 0x100 DUP6 ADD MSTORE POP PUSH1 0x20 DUP6 ADD MLOAD PUSH2 0x120 DUP5 ADD MSTORE PUSH1 0x40 DUP6 ADD MLOAD PUSH2 0x140 DUP5 ADD MSTORE PUSH1 0x60 DUP6 ADD MLOAD PUSH2 0x160 DUP5 ADD MSTORE PUSH1 0x80 DUP6 ADD MLOAD PUSH2 0x180 DUP5 ADD MSTORE DUP3 DUP2 SUB PUSH2 0x1A0 DUP5 ADD MSTORE PUSH2 0x2B69 DUP2 DUP6 PUSH2 0x28BC JUMP JUMPDEST PUSH1 0x0 PUSH1 0x20 DUP3 DUP5 SUB SLT ISZERO PUSH2 0x2E98 JUMPI PUSH1 0x0 DUP1 REVERT JUMPDEST POP MLOAD SWAP2 SWAP1 POP JUMP JUMPDEST PUSH1 0x0 DUP1 DUP6 DUP6 GT ISZERO PUSH2 0x2EAF JUMPI PUSH1 0x0 DUP1 REVERT JUMPDEST DUP4 DUP7 GT ISZERO PUSH2 0x2EBC JUMPI PUSH1 0x0 DUP1 REVERT JUMPDEST POP POP DUP3 ADD SWAP4 SWAP2 SWAP1 SWAP3 SUB SWAP2 POP JUMP JUMPDEST PUSH1 0x1 PUSH1 0x1 PUSH1 0x60 SHL SUB NOT DUP2 CALLDATALOAD DUP2 DUP2 AND SWAP2 PUSH1 0x14 DUP6 LT ISZERO PUSH2 0x2EF1 JUMPI DUP1 DUP2 DUP7 PUSH1 0x14 SUB PUSH1 0x3 SHL SHL DUP4 AND AND SWAP3 POP JUMPDEST POP POP SWAP3 SWAP2 POP POP JUMP JUMPDEST PUSH1 0x80 DUP2 MSTORE PUSH1 0x0 PUSH2 0x2F0C PUSH1 0x80 DUP4 ADD DUP8 PUSH2 0x2A7D JUMP JUMPDEST PUSH1 0x20 DUP4 ADD SWAP6 SWAP1 SWAP6 MSTORE POP PUSH1 0x1 PUSH1 0x1 PUSH1 0xA0 SHL SUB SWAP3 SWAP1 SWAP3 AND PUSH1 0x40 DUP4 ADD MSTORE PUSH1 0x60 SWAP1 SWAP2 ADD MSTORE SWAP2 SWAP1 POP JUMP JUMPDEST SWAP2 DUP3 MSTORE PUSH1 0x1 PUSH1 0x1 PUSH1 0xA0 SHL SUB AND PUSH1 0x20 DUP3 ADD MSTORE PUSH1 0x60 PUSH1 0x40 DUP3 ADD DUP2 SWAP1 MSTORE PUSH1 0x7 SWAP1 DUP3 ADD MSTORE PUSH7 0x195E1C1A5C9959 PUSH1 0xCA SHL PUSH1 0x80 DUP3 ADD MSTORE PUSH1 0xA0 ADD SWAP1 JUMP JUMPDEST DUP3 DUP2 MSTORE PUSH1 0x1 PUSH1 0x1 PUSH1 0xA0 SHL SUB DUP3 AND PUSH1 0x20 DUP3 ADD MSTORE PUSH1 0x60 PUSH1 0x40 DUP3 ADD DUP2 SWAP1 MSTORE PUSH1 0xA SWAP1 DUP3 ADD MSTORE PUSH10 0x1B9BDD081CDD185AD959 PUSH1 0xB2 SHL PUSH1 0x80 DUP3 ADD MSTORE PUSH1 0x0 PUSH1 0xA0 DUP3 ADD PUSH2 0x1B00 JUMP JUMPDEST PUSH1 0x60 DUP2 MSTORE PUSH1 0x0 PUSH2 0x2FB9 PUSH1 0x60 DUP4 ADD DUP7 PUSH2 0x2A7D JUMP JUMPDEST PUSH1 0x20 DUP4 ADD SWAP5 SWAP1 SWAP5 MSTORE POP PUSH1 0x40 ADD MSTORE SWAP2 SWAP1 POP JUMP JUMPDEST PUSH1 0x0 DUP1 PUSH1 0x40 DUP4 DUP6 SUB SLT ISZERO PUSH2 0x2FDE JUMPI PUSH1 0x0 DUP1 REVERT JUMPDEST DUP3 MLOAD PUSH1 0x1 PUSH1 0x1 PUSH1 0x40 SHL SUB DUP1 DUP3 GT ISZERO PUSH2 0x2FF5 JUMPI PUSH1 0x0 DUP1 REVERT JUMPDEST DUP2 DUP6 ADD SWAP2 POP DUP6 PUSH1 0x1F DUP4 ADD SLT PUSH2 0x3009 JUMPI PUSH1 0x0 DUP1 REVERT JUMPDEST DUP2 MLOAD DUP2 DUP2 GT ISZERO PUSH2 0x301B JUMPI PUSH2 0x301B PUSH2 0x2501 JUMP JUMPDEST PUSH1 0x40 MLOAD SWAP2 POP PUSH2 0x3034 PUSH1 0x1F DUP3 ADD PUSH1 0x1F NOT AND PUSH1 0x20 ADD DUP4 PUSH2 0x255C JUMP JUMPDEST DUP1 DUP3 MSTORE DUP7 PUSH1 0x20 DUP3 DUP6 ADD ADD GT ISZERO PUSH2 0x3049 JUMPI PUSH1 0x0 DUP1 REVERT JUMPDEST PUSH2 0x305A DUP2 PUSH1 0x20 DUP5 ADD PUSH1 0x20 DUP7 ADD PUSH2 0x2890 JUMP JUMPDEST POP PUSH1 0x20 SWAP5 SWAP1 SWAP5 ADD MLOAD SWAP4 SWAP6 SWAP4 SWAP5 POP POP POP POP JUMP INVALID LOG2 PUSH5 0x6970667358 0x22 SLT KECCAK256 BLOCKHASH PUSH24 0x236AB2E3A3902ADD271ACC87131AE1358FED9F5B5C0E8987 EXTCODECOPY PUSH19 0xBC88753C64736F6C634300080C003300000000 ",
  "sha1": "3b1ad9d1e61800b4824125124695ba2a6536f006",
  "source": "/**\n ** Account-Abstraction (EIP-4337) singleton EntryPoint implementation.\n ** Only one instance required on each chain.\n **/\n// SPDX-License-Identifier: GPL-3.0\npragma solidity ^0.8.12;\n\n/* solhint-disable avoid-low-level-calls */\n/* solhint-disable no-inline-assembly */\n/* solhint-disable reason-string */\n/* solhint-disable avoid-tx-origin */\n\nimport \"../interfaces/IAccount.sol\";\nimport \"../interfaces/IPaymaster.sol\";\n\nimport \"../interfaces/IAggregatedAccount.sol\";\nimport \"../interfaces/IEntryPoint.sol\";\nimport \"../interfaces/ICreate2Deployer.sol\";\nimport \"../utils/Exec.sol\";\nimport \"./StakeManager.sol\";\nimport \"./SenderCreator.sol\";\n\ncontract EntryPoint is IEntryPoint, StakeManager {\n\n    using UserOperationLib for UserOperation;\n\n    SenderCreator private immutable senderCreator = new SenderCreator();\n\n    // internal value used during simulation: need to query aggregator.\n    address private constant SIMULATE_FIND_AGGREGATOR = address(1);\n\n    /**\n     * compensate the caller's beneficiary address with the collected fees of all UserOperations.\n     * @param beneficiary the address to receive the fees\n     * @param amount amount to transfer.\n     */\n    function _compensate(address payable beneficiary, uint256 amount) internal {\n        require(beneficiary != address(0), \"invalid beneficiary\");\n        (bool success,) = beneficiary.call{value : amount}(\"\");\n        require(success);\n    }\n\n    /**\n     * execute a user op\n     * @param opIndex into into the opInfo array\n     * @param userOp the userOp to execute\n     * @param opInfo the opInfo filled by validatePrepayment for this userOp.\n     * @return collected the total amount this userOp paid.\n     */\n    function _executeUserOp(uint256 opIndex, UserOperation calldata userOp, UserOpInfo memory opInfo) private returns (uint256 collected) {\n        uint256 preGas = gasleft();\n        bytes memory context = getMemoryBytesFromOffset(opInfo.contextOffset);\n\n        try this.innerHandleOp(userOp.callData, opInfo, context) returns (uint256 _actualGasCost) {\n            collected = _actualGasCost;\n        } catch {\n            uint256 actualGas = preGas - gasleft() + opInfo.preOpGas;\n            collected = _handlePostOp(opIndex, IPaymaster.PostOpMode.postOpReverted, opInfo, context, actualGas);\n        }\n    }\n\n    /**\n     * Execute a batch of UserOperation.\n     * no signature aggregator is used.\n     * if any account requires an aggregator (that is, it returned an \"actualAggregator\" when\n     * performing simulateValidation), then handleAggregatedOps() must be used instead.\n     * @param ops the operations to execute\n     * @param beneficiary the address to receive the fees\n     */\n    function handleOps(UserOperation[] calldata ops, address payable beneficiary) public {\n\n        uint256 opslen = ops.length;\n        UserOpInfo[] memory opInfos = new UserOpInfo[](opslen);\n\n    unchecked {\n        for (uint256 i = 0; i < opslen; i++) {\n            _validatePrepayment(i, ops[i], opInfos[i], address(0));\n        }\n\n        uint256 collected = 0;\n\n        for (uint256 i = 0; i < opslen; i++) {\n            collected += _executeUserOp(i, ops[i], opInfos[i]);\n        }\n\n        _compensate(beneficiary, collected);\n    } //unchecked\n    }\n\n    /**\n     * Execute a batch of UserOperation with Aggregators\n     * @param opsPerAggregator the operations to execute, grouped by aggregator (or address(0) for no-aggregator accounts)\n     * @param beneficiary the address to receive the fees\n     */\n    function handleAggregatedOps(\n        UserOpsPerAggregator[] calldata opsPerAggregator,\n        address payable beneficiary\n    ) public {\n\n        uint256 opasLen = opsPerAggregator.length;\n        uint256 totalOps = 0;\n        for (uint256 i = 0; i < opasLen; i++) {\n            totalOps += opsPerAggregator[i].userOps.length;\n        }\n\n        UserOpInfo[] memory opInfos = new UserOpInfo[](totalOps);\n\n        uint256 opIndex = 0;\n        for (uint256 a = 0; a < opasLen; a++) {\n            UserOpsPerAggregator calldata opa = opsPerAggregator[a];\n            UserOperation[] calldata ops = opa.userOps;\n            IAggregator aggregator = opa.aggregator;\n            uint256 opslen = ops.length;\n            for (uint256 i = 0; i < opslen; i++) {\n                _validatePrepayment(opIndex, ops[i], opInfos[opIndex], address(aggregator));\n                opIndex++;\n            }\n\n            if (address(aggregator) != address(0)) {\n                // solhint-disable-next-line no-empty-blocks\n                try aggregator.validateSignatures(ops, opa.signature) {}\n                catch {\n                    revert SignatureValidationFailed(address(aggregator));\n                }\n            }\n        }\n\n        uint256 collected = 0;\n        opIndex = 0;\n        for (uint256 a = 0; a < opasLen; a++) {\n            UserOpsPerAggregator calldata opa = opsPerAggregator[a];\n            UserOperation[] calldata ops = opa.userOps;\n            uint256 opslen = ops.length;\n\n            for (uint256 i = 0; i < opslen; i++) {\n                collected += _executeUserOp(opIndex, ops[i], opInfos[opIndex]);\n                opIndex++;\n            }\n        }\n\n        _compensate(beneficiary, collected);\n    }\n\n    //a memory copy of UserOp fields (except that dynamic byte arrays: callData, initCode and signature\n    struct MemoryUserOp {\n        address sender;\n        uint256 nonce;\n        uint256 callGasLimit;\n        uint256 verificationGasLimit;\n        uint256 preVerificationGas;\n        address paymaster;\n        uint256 maxFeePerGas;\n        uint256 maxPriorityFeePerGas;\n    }\n\n    struct UserOpInfo {\n        MemoryUserOp mUserOp;\n        bytes32 userOpHash;\n        uint256 prefund;\n        uint256 contextOffset;\n        uint256 preOpGas;\n    }\n\n    /**\n     * inner function to handle a UserOperation.\n     * Must be declared \"external\" to open a call context, but it can only be called by handleOps.\n     */\n    function innerHandleOp(bytes calldata callData, UserOpInfo memory opInfo, bytes calldata context) external returns (uint256 actualGasCost) {\n        uint256 preGas = gasleft();\n        require(msg.sender == address(this));\n        MemoryUserOp memory mUserOp = opInfo.mUserOp;\n\n        IPaymaster.PostOpMode mode = IPaymaster.PostOpMode.opSucceeded;\n        if (callData.length > 0) {\n\n            (bool success,bytes memory result) = address(mUserOp.sender).call{gas : mUserOp.callGasLimit}(callData);\n            if (!success) {\n                if (result.length > 0) {\n                    emit UserOperationRevertReason(opInfo.userOpHash, mUserOp.sender, mUserOp.nonce, result);\n                }\n                mode = IPaymaster.PostOpMode.opReverted;\n            }\n        }\n\n    unchecked {\n        uint256 actualGas = preGas - gasleft() + opInfo.preOpGas;\n        //note: opIndex is ignored (relevant only if mode==postOpReverted, which is only possible outside of innerHandleOp)\n        return _handlePostOp(0, mode, opInfo, context, actualGas);\n    }\n    }\n\n    /**\n     * generate a request Id - unique identifier for this request.\n     * the request ID is a hash over the content of the userOp (except the signature), the entrypoint and the chainid.\n     */\n    function getUserOpHash(UserOperation calldata userOp) public view returns (bytes32) {\n        return keccak256(abi.encode(userOp.hash(), address(this), block.chainid));\n    }\n\n    /**\n     * copy general fields from userOp into the memory opInfo structure.\n     */\n    function _copyUserOpToMemory(UserOperation calldata userOp, MemoryUserOp memory mUserOp) internal pure {\n        mUserOp.sender = userOp.sender;\n        mUserOp.nonce = userOp.nonce;\n        mUserOp.callGasLimit = userOp.callGasLimit;\n        mUserOp.verificationGasLimit = userOp.verificationGasLimit;\n        mUserOp.preVerificationGas = userOp.preVerificationGas;\n        mUserOp.maxFeePerGas = userOp.maxFeePerGas;\n        mUserOp.maxPriorityFeePerGas = userOp.maxPriorityFeePerGas;\n        bytes calldata paymasterAndData = userOp.paymasterAndData;\n        if (paymasterAndData.length > 0) {\n            require(paymasterAndData.length >= 20, \"invalid paymasterAndData\");\n            mUserOp.paymaster = address(bytes20(paymasterAndData[: 20]));\n        } else {\n            mUserOp.paymaster = address(0);\n        }\n    }\n\n    /**\n     * Simulate a call to account.validateUserOp and paymaster.validatePaymasterUserOp.\n     * @dev this method always revert. Successful result is SimulationResult error. other errors are failures.\n     * @dev The node must also verify it doesn't use banned opcodes, and that it doesn't reference storage outside the account's data.\n     * @param userOp the user operation to validate.\n     */\n    function simulateValidation(UserOperation calldata userOp) external {\n        uint256 preGas = gasleft();\n\n        UserOpInfo memory outOpInfo;\n\n        (address aggregator, uint256 deadline) = _validatePrepayment(0, userOp, outOpInfo, SIMULATE_FIND_AGGREGATOR);\n        uint256 prefund = outOpInfo.prefund;\n        uint256 preOpGas = preGas - gasleft() + userOp.preVerificationGas;\n        DepositInfo memory depositInfo = getDepositInfo(outOpInfo.mUserOp.paymaster);\n        PaymasterInfo memory paymasterInfo = PaymasterInfo(depositInfo.stake, depositInfo.unstakeDelaySec);\n\n        if (aggregator != address(0)) {\n            depositInfo = getDepositInfo(aggregator);\n            AggregationInfo memory aggregationInfo = AggregationInfo(aggregator, depositInfo.stake, depositInfo.unstakeDelaySec);\n            revert SimulationResultWithAggregation(preOpGas, prefund, deadline, paymasterInfo, aggregationInfo);\n\n        }\n        revert SimulationResult(preOpGas, prefund, deadline, paymasterInfo);\n    }\n\n    function _getRequiredPrefund(MemoryUserOp memory mUserOp) internal view returns (uint256 requiredPrefund) {\n    unchecked {\n        //when using a Paymaster, the verificationGasLimit is used also to as a limit for the postOp call.\n        // our security model might call postOp eventually twice\n        uint256 mul = mUserOp.paymaster != address(0) ? 3 : 1;\n        uint256 requiredGas = mUserOp.callGasLimit + mUserOp.verificationGasLimit * mul + mUserOp.preVerificationGas;\n\n        // TODO: copy logic of gasPrice?\n        requiredPrefund = requiredGas * getUserOpGasPrice(mUserOp);\n    }\n    }\n\n    // create the sender's contract if needed.\n    function _createSenderIfNeeded(uint256 opIndex, MemoryUserOp memory mUserOp, bytes calldata initCode) internal {\n        if (initCode.length != 0) {\n            if (mUserOp.sender.code.length != 0) revert FailedOp(opIndex, address(0), \"sender already constructed\");\n            address sender1 = senderCreator.createSender(initCode);\n            if (sender1 == address(0)) revert FailedOp(opIndex, address(0), \"initCode failed\");\n            if (sender1 != mUserOp.sender) revert FailedOp(opIndex, address(0), \"sender doesn't match initCode address\");\n            if (sender1.code.length == 0) revert FailedOp(opIndex, address(0), \"initCode failed to create sender\");\n        }\n    }\n\n    /**\n     * Get counterfactual sender address.\n     *  Calculate the sender contract address that will be generated by the initCode and salt in the UserOperation.\n     * this method always revert, and returns the address in SenderAddressResult error\n     * @param initCode the constructor code to be passed into the UserOperation.\n     */\n    function getSenderAddress(bytes calldata initCode) public {\n        revert SenderAddressResult(senderCreator.createSender(initCode));\n    }\n\n    /**\n     * call account.validateUserOp.\n     * revert (with FailedOp) in case validateUserOp reverts, or account didn't send required prefund.\n     * decrement account's deposit if needed\n     */\n    function _validateAccountPrepayment(uint256 opIndex, UserOperation calldata op, UserOpInfo memory opInfo, address aggregator, uint256 requiredPrefund)\n    internal returns (uint256 gasUsedByValidateAccountPrepayment, address actualAggregator, uint256 deadline) {\n    unchecked {\n        uint256 preGas = gasleft();\n        MemoryUserOp memory mUserOp = opInfo.mUserOp;\n        _createSenderIfNeeded(opIndex, mUserOp, op.initCode);\n        if (aggregator == SIMULATE_FIND_AGGREGATOR) {\n            try IAggregatedAccount(mUserOp.sender).getAggregator() returns (address userOpAggregator) {\n                aggregator = actualAggregator = userOpAggregator;\n            } catch {\n                aggregator = actualAggregator = address(0);\n            }\n        }\n        uint256 missingAccountFunds = 0;\n        address sender = mUserOp.sender;\n        address paymaster = mUserOp.paymaster;\n        if (paymaster == address(0)) {\n            uint256 bal = balanceOf(sender);\n            missingAccountFunds = bal > requiredPrefund ? 0 : requiredPrefund - bal;\n        }\n        try IAccount(sender).validateUserOp{gas : mUserOp.verificationGasLimit}(op, opInfo.userOpHash, aggregator, missingAccountFunds) returns (uint256 _deadline) {\n            // solhint-disable-next-line not-rely-on-time\n            if (_deadline != 0 && _deadline < block.timestamp) {\n                revert FailedOp(opIndex, address(0), \"expired\");\n            }\n            deadline = _deadline;\n        } catch Error(string memory revertReason) {\n            revert FailedOp(opIndex, address(0), revertReason);\n        } catch {\n            revert FailedOp(opIndex, address(0), \"\");\n        }\n        if (paymaster == address(0)) {\n            DepositInfo storage senderInfo = deposits[sender];\n            uint256 deposit = senderInfo.deposit;\n            if (requiredPrefund > deposit) {\n                revert FailedOp(opIndex, address(0), \"account didn't pay prefund\");\n            }\n            senderInfo.deposit = uint112(deposit - requiredPrefund);\n        }\n        gasUsedByValidateAccountPrepayment = preGas - gasleft();\n    }\n    }\n\n    /**\n     * in case the request has a paymaster:\n     * validate paymaster is staked and has enough deposit.\n     * call paymaster.validatePaymasterUserOp.\n     * revert with proper FailedOp in case paymaster reverts.\n     * decrement paymaster's deposit\n     */\n    function _validatePaymasterPrepayment(uint256 opIndex, UserOperation calldata op, UserOpInfo memory opInfo, uint256 requiredPreFund, uint256 gasUsedByValidateAccountPrepayment) internal returns (bytes memory context, uint256 deadline) {\n    unchecked {\n        MemoryUserOp memory mUserOp = opInfo.mUserOp;\n        address paymaster = mUserOp.paymaster;\n        DepositInfo storage paymasterInfo = deposits[paymaster];\n        uint256 deposit = paymasterInfo.deposit;\n        bool staked = paymasterInfo.staked;\n        if (!staked) {\n            revert FailedOp(opIndex, paymaster, \"not staked\");\n        }\n        if (deposit < requiredPreFund) {\n            revert FailedOp(opIndex, paymaster, \"paymaster deposit too low\");\n        }\n        paymasterInfo.deposit = uint112(deposit - requiredPreFund);\n        uint256 gas = mUserOp.verificationGasLimit - gasUsedByValidateAccountPrepayment;\n        try IPaymaster(paymaster).validatePaymasterUserOp{gas : gas}(op, opInfo.userOpHash, requiredPreFund) returns (bytes memory _context, uint256 _deadline){\n            // solhint-disable-next-line not-rely-on-time\n            if (_deadline != 0 && _deadline < block.timestamp) {\n                revert FailedOp(opIndex, paymaster, \"expired\");\n            }\n            context = _context;\n            deadline = _deadline;\n        } catch Error(string memory revertReason) {\n            revert FailedOp(opIndex, paymaster, revertReason);\n        } catch {\n            revert FailedOp(opIndex, paymaster, \"\");\n        }\n    }\n    }\n\n    /**\n     * validate account and paymaster (if defined).\n     * also make sure total validation doesn't exceed verificationGasLimit\n     * this method is called off-chain (simulateValidation()) and on-chain (from handleOps)\n     * @param opIndex the index of this userOp into the \"opInfos\" array\n     * @param userOp the userOp to validate\n     */\n    function _validatePrepayment(uint256 opIndex, UserOperation calldata userOp, UserOpInfo memory outOpInfo, address aggregator)\n    private returns (address actualAggregator, uint256 deadline) {\n\n        uint256 preGas = gasleft();\n        MemoryUserOp memory mUserOp = outOpInfo.mUserOp;\n        _copyUserOpToMemory(userOp, mUserOp);\n        outOpInfo.userOpHash = getUserOpHash(userOp);\n\n        // validate all numeric values in userOp are well below 128 bit, so they can safely be added\n        // and multiplied without causing overflow\n        uint256 maxGasValues = mUserOp.preVerificationGas | mUserOp.verificationGasLimit | mUserOp.callGasLimit |\n        userOp.maxFeePerGas | userOp.maxPriorityFeePerGas;\n        require(maxGasValues <= type(uint120).max, \"gas values overflow\");\n\n        uint256 gasUsedByValidateAccountPrepayment;\n        (uint256 requiredPreFund) = _getRequiredPrefund(mUserOp);\n        (gasUsedByValidateAccountPrepayment, actualAggregator, deadline) = _validateAccountPrepayment(opIndex, userOp, outOpInfo, aggregator, requiredPreFund);\n        //a \"marker\" where account opcode validation is done and paymaster opcode validation is about to start\n        // (used only by off-chain simulateValidation)\n        numberMarker();\n\n        bytes memory context;\n        if (mUserOp.paymaster != address(0)) {\n            uint paymasterDeadline;\n            (context, paymasterDeadline) = _validatePaymasterPrepayment(opIndex, userOp, outOpInfo, requiredPreFund, gasUsedByValidateAccountPrepayment);\n            if (paymasterDeadline != 0 && paymasterDeadline < deadline) {\n                deadline = paymasterDeadline;\n            }\n        } else {\n            context = \"\";\n\n        }\n    unchecked {\n        uint256 gasUsed = preGas - gasleft();\n\n        if (userOp.verificationGasLimit < gasUsed) {\n            revert FailedOp(opIndex, mUserOp.paymaster, \"Used more than verificationGasLimit\");\n        }\n        outOpInfo.prefund = requiredPreFund;\n        outOpInfo.contextOffset = getOffsetOfMemoryBytes(context);\n        outOpInfo.preOpGas = preGas - gasleft() + userOp.preVerificationGas;\n    }\n    }\n\n    /**\n     * process post-operation.\n     * called just after the callData is executed.\n     * if a paymaster is defined and its validation returned a non-empty context, its postOp is called.\n     * the excess amount is refunded to the account (or paymaster - if it is was used in the request)\n     * @param opIndex index in the batch\n     * @param mode - whether is called from innerHandleOp, or outside (postOpReverted)\n     * @param opInfo userOp fields and info collected during validation\n     * @param context the context returned in validatePaymasterUserOp\n     * @param actualGas the gas used so far by this user operation\n     */\n    function _handlePostOp(uint256 opIndex, IPaymaster.PostOpMode mode, UserOpInfo memory opInfo, bytes memory context, uint256 actualGas) private returns (uint256 actualGasCost) {\n        uint256 preGas = gasleft();\n    unchecked {\n        address refundAddress;\n        MemoryUserOp memory mUserOp = opInfo.mUserOp;\n        uint256 gasPrice = getUserOpGasPrice(mUserOp);\n\n        address paymaster = mUserOp.paymaster;\n        if (paymaster == address(0)) {\n            refundAddress = mUserOp.sender;\n        } else {\n            refundAddress = paymaster;\n            if (context.length > 0) {\n                actualGasCost = actualGas * gasPrice;\n                if (mode != IPaymaster.PostOpMode.postOpReverted) {\n                    IPaymaster(paymaster).postOp{gas : mUserOp.verificationGasLimit}(mode, context, actualGasCost);\n                } else {\n                    // solhint-disable-next-line no-empty-blocks\n                    try IPaymaster(paymaster).postOp{gas : mUserOp.verificationGasLimit}(mode, context, actualGasCost) {}\n                    catch Error(string memory reason) {\n                        revert FailedOp(opIndex, paymaster, reason);\n                    }\n                    catch {\n                        revert FailedOp(opIndex, paymaster, \"postOp revert\");\n                    }\n                }\n            }\n        }\n        actualGas += preGas - gasleft();\n        actualGasCost = actualGas * gasPrice;\n        if (opInfo.prefund < actualGasCost) {\n            revert FailedOp(opIndex, paymaster, \"prefund below actualGasCost\");\n        }\n        uint256 refund = opInfo.prefund - actualGasCost;\n        internalIncrementDeposit(refundAddress, refund);\n        bool success = mode == IPaymaster.PostOpMode.opSucceeded;\n        emit UserOperationEvent(opInfo.userOpHash, mUserOp.sender, mUserOp.paymaster, mUserOp.nonce, actualGasCost, gasPrice, success);\n    } // unchecked\n    }\n\n    /**\n     * the gas price this UserOp agrees to pay.\n     * relayer/miner might submit the TX with higher priorityFee, but the user should not\n     */\n    function getUserOpGasPrice(MemoryUserOp memory mUserOp) internal view returns (uint256) {\n    unchecked {\n        uint256 maxFeePerGas = mUserOp.maxFeePerGas;\n        uint256 maxPriorityFeePerGas = mUserOp.maxPriorityFeePerGas;\n        if (maxFeePerGas == maxPriorityFeePerGas) {\n            //legacy mode (for networks that don't support basefee opcode)\n            return maxFeePerGas;\n        }\n        return min(maxFeePerGas, maxPriorityFeePerGas + block.basefee);\n    }\n    }\n\n    function min(uint256 a, uint256 b) internal pure returns (uint256) {\n        return a < b ? a : b;\n    }\n\n    function getOffsetOfMemoryBytes(bytes memory data) internal pure returns (uint256 offset) {\n        assembly {offset := data}\n    }\n\n    function getMemoryBytesFromOffset(uint256 offset) internal pure returns (bytes memory data) {\n        assembly {data := offset}\n    }\n\n    //place the NUMBER opcode in the code.\n    // this is used as a marker during simulation, as this OP is completely banned from the simulated code of the\n    // account and paymaster.\n    function numberMarker() internal view {\n        assembly {mstore(0, number())}\n    }\n}\n\n",
  "sourcePath": "contracts/core/EntryPoint.sol",
  "type": "contract"
}